:100000000C94C5000C94E2000C94E2000C94E20005
:100010000C94E2000C94E2000C94E2000C94E200D8
:100020000C94E2000C94E2000C94E2000C94E200C8
:100030000C94E2000C94E2000C94E2000C94E200B8
:100040000C94E2000C94E2000C94E2000C94E200A8
:100050000C94E2000C94E2000C94E2000C94E20098
:100060000C9443050C94E2000C94E2000C94E20022
:100070000C94E2000C94E2000C94E2006E616E00BD
:10008000696E660000407A10F35A00A0724E18099B
:100090000010A5D4E80000E87648170000E40B54EF
:1000A000020000CA9A3B000000E1F50500008096BE
:1000B0009800000040420F000000A08601000000F0
:1000C000102700000000E8030000000064000000AA
:1000D00000000A00000000000100000000002C7673
:1000E000D888DC674F0823DFC1DFAE59E1B1B7968E
:1000F000E5E3E453C63AE651997696E8E6C28426EB
:10010000EB898C9B62ED407C6FFCEFBC9C9F40F2C6
:10011000BAA56FA5F490055A2AF75C936B6CF96742
:100120006DC11BFCE0E40D47FEF520E6B500D0ED07
:10013000902E0300943577050080841E080000206F
:100140004E0A000000C80C333333330F986E12830D
:100150001141EF8D2114893BE65516CFFEE6DB18E1
:10016000D1844B381BF77C1D901DA4BBE4242032A6
:1001700084725E228100C9F124ECA1E53D2763640D
:10018000696E6F70737578585B0011241FBECFEFD6
:10019000D0E1DEBFCDBF16E0A0E0B1E0E4ECFDE2CF
:1001A00002C005900D92A63DB107D9F717E0A6ED64
:1001B000B6E001C01D92A130B107E1F70E945904D9
:1001C0000C94E0160C9400001F93182F8A3019F439
:1001D0008DE00E94E4008091C00085FFFCCF109369
:1001E000C600212F332727FD3095C9011F9108959F
:1001F0008091C00087FFFCCF8091C60090E00895F9
:100200001092C5008DE48093C40088E18093C10002
:1002100086E08093C2008FEB95E09093FE0680937A
:10022000FD06909300078093FF0681EB95E0909385
:10023000FC068093FB06089580E480937C008EE8A2
:1002400080937A0078940895F89480917A0080647D
:1002500080937A0080917A0086FDFCCF209178000F
:10026000309179007894C9010895EF92FF920F932D
:100270001F938091D606882309F402C12091AE0510
:100280003091AF0540E050E060E07BE187EB90E02B
:100290000E94A91179018A010894E108F108010975
:1002A00011098091D806882369F58091AE05909157
:1002B000AF0500D000D020E031E0ADB7BEB7129658
:1002C0003C932E93119714969C938E9313970E94B0
:1002D0001C1300D08CE191E0EDB7FEB792838183CF
:1002E000ADB7BEB71396ED92FD920D931C93169782
:1002F0000E941C13EDB7FEB736960FB6F894FEBFFA
:100300000FBEEDBFF0E0EF16F0E0FF06F1E00F07E3
:10031000F0E01F0768F489E1809381008091D8069E
:10032000882309F045C086E391E00E94311340C064
:100330002091AE053091AF0540E050E083E0220F00
:10034000331F441F551F8A95D1F760E07BE187EB8F
:1003500090E00E94A91179018A010894E108F1084E
:10036000010911098AE1809381008091D8068823D0
:10037000F9F481E591E00E94311300D000D000D063
:100380008CE691E0ADB7BEB712969C938E93119711
:10039000EDB7FEB7E382F482058316830E941C1337
:1003A0008DB79EB706960FB6F8949EBF0FBE8DBF51
:1003B000F0928700E09286002091B00530E040E0A6
:1003C00050E0C801B7010E94761124E630E040E019
:1003D00050E00E94A911309389002093880082E8A0
:1003E000809380008091D806882309F04EC0209128
:1003F00086003091870000D000D087E891E0ADB74B
:10040000BEB712969C938E93119714963C932E939D
:1004100013970E941C1320918800309189008FE966
:1004200091E0EDB7FEB792838183348323830E94EA
:100430001C1320918000EDB7FEB7319689EB91E057
:10044000ADB7BEB712969C938E93119722831382F9
:100450000E941C1320918100EDB7FEB7319681ED0B
:1004600091E0ADB7BEB712969C938E9311972283FD
:1004700013820E941C130F900F900F900F9005C0D5
:1004800010928000109281005D981F910F91FF9053
:10049000EF900895559A0E9435010895EF92FF92CA
:1004A0000F931F93CF93DF93FC01EB01E081E035C5
:1004B00009F467C1E13594F4E93409F4DAC0EA34A7
:1004C00034F4E434A1F1E63409F0B1C11DC0ED34D7
:1004D00009F4B4C0EE3409F0AAC1BAC0E33509F496
:1004E00046C0E4353CF4E13509F483C1E23509F056
:1004F0009EC162C0E63509F481C1E83509F4ADC09A
:10050000E43509F094C151C0CB010197885893415B
:1005100058F47093AF056093AE050E94350100D08A
:1005200000D089EE91E072C181E092E0B9C16536F8
:10053000710578F46093B0050E94350100D000D0B9
:1005400084E292E0EDB7FEB792838183D483C383C4
:1005500067C100D08CE392E0ADB7BEB712969C9312
:100560008E9311970E941C130F900F909BC181E0F6
:100570008093D6060E9435012091AE053091AF05DB
:100580004091B00500D000D000D0EDB7FEB7319655
:100590008FE592E0ADB7BEB712969C938E931197FC
:1005A0003383228344831582E1C01092D6060E94D1
:1005B00035018EE792E074C10E9424017C01BC01E8
:1005C00080E090E024EE3CE040E050E00E947611B4
:1005D0008B019C014AE036952795179507954A951A
:1005E000D1F78DB79EB708970FB6F8949EBF0FBE90
:1005F0008DBFEDB7FEB731968AE892E0ADB7BEB7D2
:1006000012969C938E931197F382E282C80168EE52
:1006100073E00E94951175836483C80168EE73E0EE
:100620000E9495116AE070E00E94951177836683BD
:100630000E941C13EDB7FEB738969DC01092D806E5
:100640001092DB0681E08093D7068EE992E0C9C064
:100650001092D7068AEB92E023C18BB190E28927F2
:100660008BB95D9B03C086ED92E01AC18AEE92E0E1
:1006700017C18DEF92E00E9431138091D606882336
:1006800019F427E033E002C02BE033E000D000D0C3
:100690008EE093E0ADB7BEB712969C938E93119700
:1006A00014963C932E9313970E941C132091AE0531
:1006B0003091AF058CE193E0EDB7FEB79283818373
:1006C000348323830E941C132091B005EDB7FEB73D
:1006D000319689E393E0ADB7BEB712969C938E93A3
:1006E0001197228313820E941C130F900F900F907A
:1006F0000F908DE493E00E94311386E693E00E9410
:1007000031138091D606882309F4CCC0209186004D
:100710003091870040E050E02F5F3F4F4F4F5F4FD9
:1007200060E07BE187EB90E00E94A911C901DA014A
:100730009C01AD018091810081FF07C093E0569537
:100740004795379527959A95D1F700D000D000D0DE
:1007500080E893E0EDB7FEB792838183ADB7BEB773
:1007600013962D933D934D935C9316970E941C1303
:10077000EDB7FEB736960FB6F894FEBF0FBEEDBFCD
:1007800091C01092D70681E08093D8068093D60658
:100790006091ED067091EE0680E090E024E630E096
:1007A00040E050E00E9476112FEF33E040E050E04F
:1007B0000E94A9112093B00581EE96E00E940B07DC
:1007C0006091B00570E080E090E00E94810B609342
:1007D000EF067093F0068093F1069093F20687E996
:1007E00093E00E94311380917A00806480937A00B4
:1007F00059C01092D80683EA93E052C07093EE0677
:100800006093ED0600D000D080EB93E0ADB7BEB7AB
:1008100012969C938E9311971496DC93CE93139714
:100820000E941C130F900F900F900F903BC08EEB07
:1008300093E00E9431138AED93E00E94311300D0BF
:1008400082E094E0EDB7FEB7928381830E941C138F
:100850000F900F908AE294E00E94311382E494E0BA
:100860000E94311389E594E00E94311385E794E0FA
:100870000E9431138DE994E00E94311384EC94E0DE
:100880000E9431138DED94E00E94311387EF94E0C4
:100890000E94311386E195E00E94311388E395E0D0
:1008A0000E943113DF91CF911F910F91FF90EF9034
:1008B00008952F923F924F925F926F927F928F9204
:1008C0009F92AF92BF92CF92DF92EF92FF920F93DF
:1008D0001F93DF93CF93CDB7DEB7E4970FB6F894AD
:1008E000DEBF0FBECDBF0E9400010E944A0280E41D
:1008F00080937C008EE880937A00789481EE96E075
:100900004DEC5CEC6CE47DE30AE017ED23E23CE3A4
:100910000F2EF0E0CF2EF0E0DF2EF0E0EF2EF0E033
:10092000FF2EF02DA12CB2E0BB2E0E94CE0580E55B
:1009300095E00E94311384E695E00E94311380E92E
:1009400095E00E943113AAE82A2EA2E03A2EFCE29A
:100950004F2EF1E05F2EE6EA6E2EE5E07E2E73E08C
:10096000C72ED12CCC0EDD1E6BEA862E65E0962EAE
:100970005E010894A11CB11C8091D706882309F45C
:100980004FC08FB7F894E090D906F090DA068FBF89
:10099000B70180E090E024EE3CE040E050E00E94AF
:1009A00076118B019C015AE036952795179507958E
:1009B0005A95D1F78DB79EB708970FB6F8949EBF9A
:1009C0000FBE8DBFEDB7FEB73196ADB7BEB712966D
:1009D0003C922E921197F382E282C80168EE73E096
:1009E0000E94951175836483C80168EE73E00E94CC
:1009F00095116AE070E00E949511778366830E94EA
:100A00001C1388EE93E0EDB7FEB738960FB6F89456
:100A1000FEBF0FBEEDBFF2013197F1F70197D9F795
:100A20008091C00087FFA8CF00D000D0ADB7BEB77F
:100A300012967C926E9211971496DC92CE92139736
:100A40000E9466130F900F900F900F90019709F07E
:100A500093CF00D000D0EDB7FEB792828182B482EE
:100A6000A3820E9466130F900F900F900F90019732
:100A700021F469817A81C60103C0C60160E070E09B
:100A80000E944E0279CF1F920F920FB60F9211243F
:100A90002F933F934F935F936F937F938F939F9386
:100AA000AF93BF93EF93FF9380917800909179007B
:100AB0002091DC063091DD064091DE065091DF0684
:100AC000A0E0B0E0820F931FA41FB51F8093DC0647
:100AD0009093DD06A093DE06B093DF068091E006DA
:100AE0008F5F8093E0068091E0068436C8F16091C4
:100AF000DC067091DD068091DE069091DF0624E62B
:100B000030E040E050E00E94A9113093DA062093D3
:100B1000D9061092DC061092DD061092DE061092C5
:100B2000DF061092E0068091D8068823C9F08091F4
:100B3000DB068F5F8093DB068091DB06833080F0DD
:100B40001092DB066091D9067091DA064091B005EB
:100B500081EE96E00E94FF058093B0050E9435016A
:100B60008091D806882321F48091D706882329F024
:100B700080917A00806480937A00FF91EF91BF9119
:100B8000AF919F918F917F916F915F914F913F9125
:100B90002F910F900FBE0F901F901895AF92BF929C
:100BA000CF92DF92EF92FF920F931F93FC0140834D
:100BB0005183628373830483158326833783C086BE
:100BC000D186E286F386B586A48680E090E0A0E038
:100BD000B0E086879787A08BB18B828B938BA48B99
:100BE000B58B178A168A108E84E6818F1F910F911C
:100BF000FF90EF90DF90CF90BF90AF9008952F922D
:100C00003F924F925F926F927F928F929F92AF929C
:100C1000BF92CF92DF92EF92FF920F931F93DF93D9
:100C2000CF9300D000D000D0CDB7DEB79E838D83A8
:100C3000FC0124843584261A370AB101882777FD00
:100C40008095982F0E94CF0A7B018C01ED81FE8157
:100C500020813181428153810E94C90869837A834E
:100C60008B839C83ED81FE8186899789B101681B06
:100C7000790B882777FD8095982F0E94CF0AED8108
:100C8000FE8120853185428553850E94C90821E374
:100C900038E04CEA5CE30E94C3092B013C01ED8182
:100CA000FE81648175818681978121E338E04CEA79
:100CB0005CE30E94C908A80197010E94C908ED8160
:100CC000FE8126853785408951890E949C08ED81E7
:100CD000FE8166877787808B918B20E030E040EA49
:100CE00052E40E946F0A181654F480E090E0A0EAE3
:100CF000B2E4ED81FE8186879787A08BB18BED8171
:100D0000FE81668577858089918920E030E040EA20
:100D100052EC0E949F0A882354F480E090E0A0EAFD
:100D2000B2ECED81FE8186879787A08BB18B6981BC
:100D30007A818B819C81ED81FE8126853785408972
:100D400051890E949C08A30192010E949C085B01AA
:100D50006C01ED81FE81818D882E9924B401882754
:100D600077FD8095982F0E94CF0A7B018C01C601E8
:100D7000B501A80197010E946F0A1816B4F0ED8121
:100D8000FE81808D882E9924B401882777FD809577
:100D9000982F0E94CF0A7B018C01C601B501A801E2
:100DA00097010E949F0A88239CF4C801B7012981FA
:100DB0003A814B815C810E946B08A30192010E94E1
:100DC0006B08ED81FE8166877787808B918B05C0EC
:100DD000C601B5010E942D0B4B01ED81FE81378AC2
:100DE000268A882D26960FB6F894DEBF0FBECDBF9B
:100DF000CF91DF911F910F91FF90EF90DF90CF90F7
:100E0000BF90AF909F908F907F906F905F904F902A
:100E10003F902F900895FC0180E090E0A0E0B0E0CA
:100E200086879787A08BB18B828B938BA48BB58B96
:100E3000178A168A0895FC01608F418F0895A0E0FB
:100E4000B0E0E5E2F7E00C94CB11DC012B01FA01F4
:100E50009C91923008F439C1EB018881823008F40A
:100E600033C1943069F4843009F02FC111969C91FC
:100E700011978981981709F428C1ADECB5E025C117
:100E8000843009F421C18230A9F4923009F01DC1E7
:100E90009A01AD0188E0EA010990AE01E9010992E9
:100EA0009E018150C1F7E201898111969C918923AD
:100EB000818308C1923009F407C112962D903C90AD
:100EC0001397EB018A819B811496AD90BD90CD90D4
:100ED000DC901797EC80FD800E811F819101281B0B
:100EE000390BB90137FF04C066277727621B730BE4
:100EF000603271050CF061C0121613066CF53701F3
:100F00004801062E04C096948794779467940A94B7
:100F1000D2F721E030E040E050E004C0220F331F60
:100F2000441F551F6A95D2F7215030404040504031
:100F30002E213F2140235123211531054105510523
:100F400021F021E030E040E050E079018A01E6281C
:100F5000F728082919293CC0232BD1F1260E371E6A
:100F600035014601062E04C09694879477946794C1
:100F70000A94D2F721E030E040E050E004C0220FB4
:100F8000331F441F551F6A95D2F72150304040400F
:100F900050402A213B214C215D212115310541057D
:100FA000510521F021E030E040E050E059016A01B4
:100FB000A628B728C828D9280BC0821593052CF07D
:100FC0001C01AA24BB24650103C0EE24FF24870171
:100FD00011969C91D20111968C91981709F445C0F5
:100FE000992339F0A80197012A193B094C095D0999
:100FF00006C0A60195012E193F09400B510B57FD64
:1010000008C011823382228224833583468357832A
:101010001DC081E081833382228288279927DC01E9
:10102000821B930BA40BB50B84839583A683B78394
:101030000DC0220F331F441F551F24833583468361
:1010400057838281938101979383828324813581A1
:1010500046815781DA01C9010197A109B1098F5F62
:101060009F4FAF4FBF4328F30BC09183338222823F
:10107000EA0CFB1C0C1D1D1DE482F5820683178300
:1010800083E08083248135814681578157FF1AC0D0
:10109000C901AA2797FDA095BA2F81709070A07002
:1010A000B0705695479537952795822B932BA42B97
:1010B000B52B84839583A683B78382819381019620
:1010C00093838283DF0101C0D201CD01CDB7DEB7AA
:1010D000E2E10C94E711A0E2B0E0E1E7F8E00C9463
:1010E000D71169837A838B839C832D833E834F83BF
:1010F0005887E9E0EE2EF12CEC0EFD1ECE01019694
:10110000B7010E941E0D8E010F5E1F4FCE01059686
:10111000B8010E941E0D8A8991E089278A8BC70138
:10112000B801AE01475E5F4F0E941F070E94490C45
:10113000A096E6E00C94F311A0E2B0E0E2EAF8E059
:101140000C94D71169837A838B839C832D833E8390
:101150004F835887F9E0EF2EF12CEC0EFD1ECE01E7
:101160000196B7010E941E0D8E010F5E1F4FCE012A
:101170000596B8010E941E0DC701B801AE01475E79
:101180005F4F0E941F070E94490CA096E6E00C9456
:10119000F311A0E2B0E0EFECF8E00C94CB1169831E
:1011A0007A838B839C832D833E834F835887CE0124
:1011B0000196BE01675F7F4F0E941E0DCE0105960E
:1011C000BE016F5E7F4F0E941E0D9985923088F0A0
:1011D00089898230C8F0943019F4823051F404C007
:1011E000843029F4923081F48DEC95E0C6C09230C1
:1011F00049F420E09A858A89981321E02A87CE0154
:101200000996BBC0823049F420E09A858A899813F8
:1012100021E02A8BCE014196B0C02D843E844F84BC
:1012200058886D887E888F88988CEE24FF248701EB
:10123000AA24BB24650140E050E060E070E0E0E0FB
:10124000F0E0C10181709070892BE9F0E60CF71C89
:10125000081D191D9A01AB012A0D3B1D4C1D5D1D7A
:1012600080E090E0A0E0B0E0E614F704080519057E
:1012700020F481E090E0A0E0B0E0BA01A901480FBD
:10128000591F6A1F7B1FAA0CBB1CCC1CDD1C97FEC0
:1012900008C081E090E0A0E0B0E0A82AB92ACA2AFC
:1012A000DB2A3196E032F10549F0660C771C881C88
:1012B000991C5694479437942794C3CFFA85EA89AA
:1012C0002B893C898B859C85280F391F2E5F3F4FCA
:1012D00017C0CA0181709070892B61F0169507952F
:1012E000F794E79480E090E0A0E0B0E8E82AF92ADB
:1012F0000A2B1B2B76956795579547952F5F3F4F88
:1013000077FDE7CF0CC0440F551F661F771F17FDF1
:101310004160EE0CFF1C001F111F21503040403077
:1013200090E0590790E0690790E4790760F32B8F0C
:101330003C8FDB01CA018F779070A070B070803451
:101340009105A105B10561F447FD0AC0E114F1045E
:101350000105110529F0405C5F4F6F4F7F4F4078CA
:101360001A8EFE1711F081E08A8F4D8F5E8F6F8F7E
:1013700078A383E0898FCE0149960E94490CA096FC
:10138000E2E10C94E711A8E1B0E0E9ECF9E00C949B
:10139000D31169837A838B839C832D833E834F8310
:1013A0005887B9E0EB2EF12CEC0EFD1ECE01019614
:1013B000B7010E941E0D8E010F5E1F4FCE010596D4
:1013C000B8010E941E0D2985223008F47EC039899B
:1013D000323010F4B8017CC08A859A8989278A87BF
:1013E000243011F0223031F4231709F06EC06DEC77
:1013F00075E06EC0343039F41D861E861F86188A4B
:101400001C861B8604C0323021F484E08987B70132
:101410005FC02B853C858B899C89281B390B3C87B9
:101420002B87ED84FE840F851889AD88BE88CF8810
:10143000D88CEA14FB040C051D0540F4EE0CFF1CCF
:10144000001F111F215030403C872B8720E030E0E7
:1014500040E050E080E090E0A0E0B0E460E070E0C8
:10146000EA14FB040C051D0540F0282B392B4A2BF0
:101470005B2BEA18FB080C091D09B695A7959795F3
:101480008795EE0CFF1C001F111F6F5F7F4F6F31A0
:10149000710531F7DA01C9018F779070A070B070D3
:1014A00080349105A105B10561F427FD0AC0E1145E
:1014B000F1040105110529F0205C3F4F4F4F5F4FAC
:1014C00020782D873E874F87588BBE01675F7F4FFF
:1014D000CB010E94490C6896EAE00C94EF11A8E158
:1014E000B0E0E5E7FAE00C94D71169837A838B8347
:1014F0009C832D833E834F83588789E0E82EF12C0F
:10150000EC0EFD1ECE010196B7010E941E0D8E014C
:101510000F5E1F4FCE010596B8010E941E0D8985F2
:10152000823040F08989823028F0C701B8010E94DA
:10153000960D01C08FEF6896E6E00C94F311A8E1D8
:10154000B0E0E5EAFAE00C94D71169837A838B83E3
:101550009C832D833E834F83588789E0E82EF12CAE
:10156000EC0EFD1ECE010196B7010E941E0D8E01EC
:101570000F5E1F4FCE010596B8010E941E0D898592
:10158000823040F08989823028F0C701B8010E947A
:10159000960D01C081E06896E6E00C94F311A8E096
:1015A000B0E0E5EDFAE00C94D4119B01AC0183E0CE
:1015B0008983DA01C9018827B7FD83959927AA276E
:1015C000BB27B82E211531054105510519F482E0DC
:1015D00089833AC08823A9F0203080E0380780E072
:1015E000480780E8580729F460E070E080E09FEC4D
:1015F00030C0EE24FF248701E21AF30A040B150B16
:1016000002C079018A018EE1C82ED12CDC82CB8206
:10161000ED82FE820F831887C801B7010E94FA0B82
:1016200001971816190684F4082E04C0EE0CFF1C4E
:10163000001F111F0A94D2F7ED82FE820F831887D4
:10164000C81AD90ADC82CB82BA82CE0101960E94E6
:10165000490C2896E9E00C94F011ACE0B0E0E3E32B
:10166000FBE00C94DB1169837A838B839C83CE012E
:101670000196BE016B5F7F4F0E941E0D8D818230EF
:1016800061F1823050F1843021F48E81882351F150
:101690002EC02F81388537FD20C06E812F31310556
:1016A0001CF06623F9F023C08EE190E0821B930BBF
:1016B00029853A854B855C8504C0569547953795B5
:1016C00027958A95D2F76623B1F0509540953095CD
:1016D00021953F4F4F4F5F4F0EC020E030E040E07C
:1016E00050E009C02FEF3FEF4FEF5FE704C020E06D
:1016F00030E040E050E8B901CA012C96E2E00C94D9
:10170000F711A8E0B0E0E7E8FBE00C94D3117B010F
:101710008C01611571058105910519F482E08983B9
:1017200060C083E089838EE1C82ED12CDC82CB821D
:10173000ED82FE820F831887C801B7010E94FA0B61
:10174000FC013197F7FF3BC0222733272E1B3F0BAD
:1017500057016801022E04C0D694C794B794A79489
:101760000A94D2F740E050E060E070E081E090E061
:10177000A0E0B0E004C0880F991FAA1FBB1F2A95E4
:10178000D2F70197A109B1098E219F21A023B1238E
:101790000097A105B10521F041E050E060E070E064
:1017A0004A295B296C297D294D835E836F83788765
:1017B0008EE190E08E1B9F0B9C838B8312C0309731
:1017C00081F00E2E04C0EE0CFF1C001F111F0A94A6
:1017D000D2F7ED82FE820F831887CE1ADF0ADC82F1
:1017E000CB821A82CE0101960E94490C2896EAE02B
:1017F0000C94EF11EF92FF920F931F937B018C01DA
:1018000080E0E81680E0F80681E0080780E018072D
:1018100088F48FEFE816F1040105110531F028F086
:1018200088E090E0A0E0B0E017C080E090E0A0E0A9
:10183000B0E012C080E0E81680E0F80680E008071B
:1018400081E0180728F088E190E0A0E0B0E004C053
:1018500080E190E0A0E0B0E020E230E040E050E045
:10186000281B390B4A0B5B0B04C016950795F794A0
:10187000E7948A95D2F7F701EB52FA4F8081281B43
:10188000310941095109C9011F910F91FF90EF9052
:101890000895DF92EF92FF920F931F93FC01E48073
:1018A000F58006811781D1808081823048F480E004
:1018B00090E0A0E1B0E0E82AF92A0A2B1B2BA5C092
:1018C000843009F49FC0823021F4EE24FF24870184
:1018D00005C0E114F1040105110519F4E0E0F0E0A0
:1018E00096C0628173819FEF623879070CF05BC00C
:1018F00022E83FEF261B370B2A3131052CF020E080
:1019000030E040E050E02AC0B801A701022E04C038
:1019100076956795579547950A94D2F781E090E0C0
:10192000A0E0B0E004C0880F991FAA1FBB1F2A9532
:10193000D2F70197A109B1098E219F21A023B123DC
:101940000097A105B10521F081E090E0A0E0B0E0B2
:101950009A01AB01282B392B4A2B5B2BDA01C901E9
:101960008F779070A070B07080349105A105B1059B
:1019700039F427FF09C0205C3F4F4F4F5F4F04C031
:10198000215C3F4F4F4F5F4FE0E0F0E02030A0E0A0
:101990003A07A0E04A07A0E45A0710F0E1E0F0E0BF
:1019A00079018A0127C06038710564F5FB01E158AF
:1019B000FF4FD801C7018F779070A070B07080344E
:1019C0009105A105B10539F4E7FE0DC080E490E072
:1019D000A0E0B0E004C08FE390E0A0E0B0E0E80E4B
:1019E000F91E0A1F1B1F17FF05C016950795F794D0
:1019F000E794319687E016950795F794E7948A95D2
:101A0000D1F705C0EE24FF248701EFEFF0E06E2F41
:101A1000679566276795902F9F77D794DD24D79495
:101A20008E2F8695492F462B582F5D29B701CA0165
:101A30001F910F91FF90EF90DF900895FC01DB0163
:101A4000408151812281622F6F7770E0221F22270F
:101A5000221F9381892F880F822B282F30E0991F16
:101A60009927991F11969C93119721153105A9F576
:101A7000411551056105710511F482E037C082E816
:101A80009FEF13969C938E9312979A01AB0167E098
:101A9000220F331F441F551F6A95D1F783E08C93A3
:101AA0000DC0220F331F441F551F12968D919C911C
:101AB0001397019713969C938E931297203080E092
:101AC000380780E0480780E4580758F314962D93B0
:101AD0003D934D935C93179708952F3F310579F40B
:101AE000411551056105710519F484E08C93089541
:101AF00064FF03C081E08C9312C01C9210C02F576A
:101B0000304013963C932E93129783E08C9387E09A
:101B1000440F551F661F771F8A95D1F7706414967E
:101B20004D935D936D937C93179708951F93DC01FC
:101B3000FB019C91923008F447C08081823008F408
:101B400043C0943051F411961C91843099F58181F1
:101B5000682F70E0611B71093FC0843021F0923022
:101B600031F48230B9F18181882389F12DC0119639
:101B70001C9111978230F1F081811817D9F41296D7
:101B80002D913C911397828193818217930794F052
:101B900028173907BCF014968D919D910D90BC913A
:101BA000A02D2481358146815781281739074A079E
:101BB0005B0718F4112341F00AC082179307A407AA
:101BC000B50740F4112319F061E070E005C06FEF34
:101BD0007FEF02C060E070E0CB011F910895A1E1AA
:101BE000B0E0E5EFFDE00C94CB113C017F876E8700
:101BF0006A01FC0117821682838181FD03C06FEFA9
:101C00007FEF6FC39E012F5F3F4F398B288BF3010E
:101C10002381EE85FF8523FD859123FF8191FF8739
:101C2000EE87882309F45AC3853251F4EE85FF8587
:101C300023FD859123FF8191FF87EE87853229F46B
:101C400090E0B3010E94F012E2CF982F10E08824B8
:101C500099241032B0F49B3269F09C3228F490320F
:101C600051F0933271F40BC09D3239F0903349F446
:101C7000116028C01260146025C0186023C0106174
:101C800021C017FD2AC0892F80538A3078F416FFAF
:101C900006C0FAE09F9E902C1124980E13C03AE0E3
:101CA000839E802C1124880E10620CC09E3221F479
:101CB00016FD14C3106406C09C3611F4106802C0EF
:101CC000983659F4EE85FF8523FD959123FF919178
:101CD000FF87EE87992309F0BCCF892F8554833085
:101CE00020F4812F8061905E07C0892F8556833054
:101CF00008F09FC1812F8F7E86FD02C076E0972E6F
:101D00006FE3F62EF822953619F4F0E4FF2A07C0A7
:101D1000963619F420E8F22A02C091109A94F7FE40
:101D20000AC03BE3391518F45CE3B52E02C0B92CA8
:101D3000B39427E009C047E0491520F4BB2447E0ED
:101D4000942EF7CF292DBB24C60104969D878C873E
:101D5000F6016081718182819381AE014F5F5F4F97
:101D60000B2D0E9402126C010981202E332400FFEA
:101D700004C003FD02C01DE209C0F1FE02C01BE267
:101D800005C0F2FC02C010E001C010E2C1018C707D
:101D90009070892BB9F1112311F483E001C084E024
:101DA000881510F088240AC0881AF3FC07C080E266
:101DB00090E0B3010E94F0128A94C9F7112329F030
:101DC000812F90E0B3010E94F01223FE03C00CE7C4
:101DD00010E00EC000E810E00BC0E114F10409F0BF
:101DE000805290E0B3010E94F0120F5F1F4F05C0B8
:101DF000EF2CFF24F0E1EF22FF24F80184918823E7
:101E000061F714C1F7FE12C0BC0C24FE04C08A8125
:101E1000813309F4BA941B141CF0BB24B3942DC075
:101E2000F8E0FB1550F538E0B32E27C0F6FC25C0CE
:101E3000892D90E08C159D054CF02CEFC2162FEFEC
:101E4000D20624F030E8F32A01C09A94992049F090
:101E5000E2E0F0E0EC0FFD1FE90DF11D8081803321
:101E6000A1F3F7FE0AC0B92CB394892D90E0C816EF
:101E7000D90614F0992401C09C18F7FC03C025E092
:101E800030E009C01C141D041CF021E030E003C048
:101E900096012F5F3F4F112311F02F5F3F4F992085
:101EA00029F0892D90E00196280F391F882D90E0A8
:101EB0002817390714F0882401C0821A4F2C5524A2
:101EC000C20189709070892B39F008C080E290E0DF
:101ED000B3010E94F0128A948820C1F7112329F0DF
:101EE000812F90E0B3010E94F01243FE07C008C0AA
:101EF00080E390E0B3010E94F0128A948820C1F739
:101F0000F7FE46C08601D7FE02C000E010E0760171
:101F10000894E11CF11CE01AF10A41E050E04C0F7A
:101F20005D1FE40EF51E26014B185108892D90E027
:101F3000AA24BB24A81AB90A5FEF0F3F150729F49A
:101F40008EE290E0B3010E94F012C016D10634F088
:101F5000401651061CF4F701808101C080E3015056
:101F600010400894E11CF11C0A151B052CF090E0B0
:101F7000B3010E94F012E0CF0C151D0539F49A81CF
:101F8000963318F4953311F424FE81E390E04BC0AE
:101F90008A81813309F00F7E90E0B3010E94F01234
:101FA0009920A1F08EE290E0B3010E94F01212E0BD
:101FB000E1E0F0E0EC0FFD1FE10FF11D1F5F8081FC
:101FC00090E0B3010E94F0129A9491F744FC03C090
:101FD00085E690E002C085E490E0B3010E94F01233
:101FE000D7FC05C0C114D10441F404FF06C0D0944D
:101FF000C194D108D3948DE201C08BE290E0B3018B
:102000000E94F01280E305C08F5F26EF3FEFC20E03
:10201000D31E3AE0C316D104BCF790E0B3010E948E
:10202000F012C601C096B3010E94F012CC84DD8488
:1020300052C1933631F0933799F0933509F059C076
:1020400023C0F601808189835E010894A11CB11C24
:1020500022E030E0C20ED31E21E0E22EF12C12C0AD
:10206000F601A080B18016FD03C06FEF7FEF02C0C4
:10207000692D70E022E030E0C20ED31EC5010E943F
:10208000E5127C011F7713C0F601A080B18016FD18
:1020900003C06FEF7FEF02C0692D70E022E030E0F7
:1020A000C20ED31EC5010E94DA127C01106813FF14
:1020B00007C01BC080E290E0B3010E94F0128A9436
:1020C000882D90E0E816F906A8F30FC0F50117FD7A
:1020D000859117FF81915F0190E0B3010E94F0129A
:1020E00081108A940894E108F108E114F10471F771
:1020F000F2C0943611F0993689F517FF08C0F60141
:10210000208131814281538184E090E00AC0F60150
:10211000808191819C01442737FD4095542F82E0B6
:1021200090E0C80ED91E9FE6F92EF12257FF09C094
:1021300050954095309521953F4F4F4F5F4F90E818
:10214000F92ACA01B901AE014F5F5F4F2AE030E0C2
:102150000E947B13E82EE889EE1A41C0953721F4DE
:102160001F7E2AE030E01CC0197F9F3661F0903757
:1021700020F4983509F0B2C00FC0903739F0983785
:1021800009F0ACC004C028E030E00AC0106114FDC2
:10219000146020E130E004C014FD166020E132E05C
:1021A00017FF08C0F601608171818281938144E04C
:1021B00050E008C0F60180819181BC0180E090E090
:1021C00042E050E0C40ED51EAE014F5F5F4F0E944B
:1021D0007B13E82E5889E51A8FE7F82EF122F6FED8
:1021E0000BC08EEFF822E91438F4F4FE07C0F2FCBD
:1021F00005C09FEEF92202C01E2D01C0192DF4FE6C
:102200000DC0FE01EE0DF11D8081803319F4E9EE61
:10221000FE2208C01F5FF2FE05C003C08F2D867826
:1022200009F01F5F0F2DF3FC14C0F0FE0FC018154E
:1022300010F09E2C0BC09E2C980C911A182D06C0E5
:1022400080E290E0B3010E94F0121F5F1815C0F306
:1022500004C0181510F4811A01C0882404FF0FC0AF
:1022600080E390E0B3010E94F01202FF1DC001FD67
:1022700003C088E790E00EC088E590E00BC0802F97
:10228000867891F001FF02C08BE201C080E2F7FC8A
:102290008DE290E0B3010E94F01206C080E390E06E
:1022A000B3010E94F0129A94E914C0F3EA94E1E0B9
:1022B000F0E0EC0FFD1FEE0DF11D808190E0B30109
:1022C0000E94F012EE2091F706C080E290E0B30188
:1022D0000E94F0128A948820C1F799CCF30166819C
:1022E0007781CB016196E2E10C94E711629FD00106
:1022F000739FF001829FE00DF11D649FE00DF11DC1
:10230000929FF00D839FF00D749FF00D659FF00D6F
:102310009927729FB00DE11DF91F639FB00DE11D5C
:10232000F91FBD01CF0111240895AA1BBB1B51E168
:1023300007C0AA1FBB1FA617B70710F0A61BB70B35
:10234000881F991F5A95A9F780959095BC01CD01DA
:102350000895A1E21A2EAA1BBB1BFD010DC0AA1FE6
:10236000BB1FEE1FFF1FA217B307E407F50720F0FE
:10237000A21BB30BE40BF50B661F771F881F991F79
:102380001A9469F760957095809590959B01AC01C2
:10239000BD01CF0108952F923F924F925F926F92AD
:1023A0007F928F929F92AF92BF92CF92DF92EF92E5
:1023B000FF920F931F93CF93DF93CDB7DEB7CA1B66
:1023C000DB0B0FB6F894DEBF0FBECDBF09942A8891
:1023D000398848885F846E847D848C849B84AA8439
:1023E000B984C884DF80EE80FD800C811B81AA81C6
:1023F000B981CE0FD11D0FB6F894DEBF0FBECDBF91
:10240000ED010895283008F027E03327DA01990F0D
:10241000311D87FD916000966105710539F43260C8
:102420002E5F3D9330E32A95E1F708959F3F30F00A
:1024300080387105610509F03C5F3C5F3D93913048
:1024400008F08068911DDF93CF931F930F93FF9245
:10245000EF92192F987F9695E92F96959695E90F0B
:10246000FF27E252FF4F99273327EE24FF24A701CD
:10247000E70105900894079428F4360FE71EF81E2C
:10248000491F511D660F771F881F991F0694A1F7DA
:102490000590079428F4E70EF81E491F561FC11D2A
:1024A000770F881F991F661F0694A1F70590079460
:1024B00028F4F80E491F561FC71FD11D880F991FFA
:1024C000661F771F0694A1F70590079420F4490F23
:1024D000561FC71FD81F990F661F771F881F0694A6
:1024E000A9F784911095177041F0D695C795579527
:1024F0004795F794E7941A95C1F7E4E8F0E06894FB
:102500001590159135916591959105907FE27395A0
:10251000E118F10A430B560BC90BD009C0F7E10CC7
:10252000F11E431F561FC91FD01D7EF4703311F4D6
:102530008A95E6CFE894015030F0080F0AF400279E
:10254000021708F4202F2395022F7A3328F079E31D
:102550007D932A95E9F710C07D932A9589F6069414
:1025600097956795379517951794E118F10A430BDE
:10257000560BC90BD00998F023957E9173957A3349
:1025800008F070E37C932013B8F77E9170617D931F
:1025900030F0839571E37D9370E32A95E1F7112480
:1025A000EF90FF900F911F91CF91DF91992787FDB9
:1025B00090950895FC010590615070400110D8F786
:1025C000809590958E0F9F1F0895FC01615070407B
:1025D00001900110D8F7809590958E0F9F1F089558
:1025E0000F931F93CF93DF938C01EB018B8181FFBE
:1025F0001BC082FF0DC02E813F818C819D812817D9
:10260000390764F4E881F9810193F983E88306C00E
:10261000E885F985802F0995892B31F48E819F817A
:1026200001969F838E8302C00FEF1FEFC801DF91D9
:10263000CF911F910F910895A0E0B0E0E2E2F3E1A5
:102640000C94DB11FE013596619171918091FD062C
:102650009091FE06AF010E94EF0D2096E2E00C94EF
:10266000F7110F931F93CF93DF938C01E091FD0639
:10267000F091FE06838181FF21C0C0E0D0E00DC053
:10268000E091FD06F091FE0620853185BF01F9013C
:102690000995892B11F0CFEFDFEFF80181918F01C0
:1026A000882371F7E091FD06F091FE0620853185C3
:1026B0008AE0BF01F9010995892B11F0CFEFDFEF17
:1026C000CE01DF91CF911F910F910895A0E0B0E06E
:1026D000ECE6F3E10C94DB11FE013596619171910A
:1026E0008091FB069091FC06AF010E945D1520963B
:1026F000E2E00C94F711FA01AA27283051F12031B9
:1027000081F1E8946F936E7F6E5F7F4F8F4F9F4F85
:10271000AF4FB1E03ED0B4E03CD0670F781F891FC7
:102720009A1FA11D680F791F8A1F911DA11D6A0F95
:10273000711D811D911DA11D20D009F468943F9148
:102740002AE0269F11243019305D3193DEF6CF0147
:102750000895462F4770405D4193B3E00FD0C9F70D
:10276000F6CF462F4F70405D4A3318F0495D31FD7A
:102770004052419302D0A9F7EACFB4E0A6959795CD
:10278000879577956795BA95C9F7009761057105A3
:1027900008959B01AC010A2E0694579547953795ED
:1027A0002795BA95C9F7620F731F841F951FA01D47
:1027B0000895FC0120FD08C023FD05C022FF02C0D2
:1027C00073836283518340830895EF92FF920F9346
:1027D0001F9344FF02C033E011C046FF02C034E043
:1027E0000DC0DB01FC01AA0FBB1FEE1FFF1F1094E1
:1027F000D1F76A0F7B1F8E1F9F1F31E0660F771F77
:10280000881F991F3150D1F77B018C01E20EF11C1A
:10281000011D111DA8019701B701CA011F910F9158
:10282000FF90EF9008950F931F93CF93DF938C0148
:10283000C8010E948116EC0197FD08C00E946E1627
:10284000892BB1F7CE01B8010E94C316CE01DF91EA
:10285000CF911F910F910895A0E0B0E0E2E3F4E181
:102860000C94D311EC01C62E5A01122F0E9481162E
:10287000AC018B3219F08D3251F41068CA9409F40E
:102880006DC0CE010E948116AC0197FD67C06DEF4F
:10289000D62ED1228D2D807301F54033F1F4CA94E8
:1028A00009F447C0CE010E948116AC0197FD41C0DA
:1028B00082E0D82A483711F0483559F480E4D82A04
:1028C000CA94B9F1CE010E948116AC0199232CF46F
:1028D00030C0D6FC02C080E1D82AEE24FF24870154
:1028E000242F2053283088F0D4FC09C02A3068F007
:1028F000D6FE05C02F7D822F8151863028F0CA0177
:10290000BE010E94C31612C02750C801B7014D2D49
:102910000E94E5137B018C0182E0D82ACA9461F001
:10292000CE010E948116AC0197FFDACFD1FC04C022
:1029300015C0EE24FF248701D7FE08C0109500952E
:10294000F094E094E11CF11C011D111DC501B801BA
:10295000A7012D2D0E94D91381E001C080E0CDB7E1
:10296000DEB7EAE00C94EF11A0E2B0E0EAEBF4E1AC
:102970000C94CF116C01A62E8A017901FE013196CB
:1029800080E2DF011D928A95E9F770E030E060E0B7
:1029900040E050E04F01A1E0B0E0F6018381F70193
:1029A00083FD259183FF21917F01222309F47EC0BD
:1029B0002E3519F44115510569F1872F90E08417E0
:1029C000950744F42D3551F12D3221F4332329F4A8
:1029D00031E021C0332309F4622F322F832F8695F3
:1029E00086958695F401E80FF11D832F87703D01D0
:1029F00002C0660C771C8A95E2F720812629208385
:102A0000361711F430E007C0361710F43F5FE6CFF9
:102A10003150E4CF71E04F5F5F4FBFCF332319F0E8
:102A20008E8180628E83772359F0FE0131969E015C
:102A30002F5D3F4F808180958193E217F307D1F797
:102A4000BB24B3944E010894811C911CC6010E94C2
:102A50008116AC0197FD22C0869586958695F40176
:102A6000E80FF11D808190E09A012770307002C05C
:102A7000959587952A95E2F780FD05C0CA01B601B4
:102A80000E94C3160BC00115110519F0D8014D9312
:102A90008D01AA94BB24AA20C9F602C0BB2031F440
:102AA0000115110529F0F801108202C0EE24FF245F
:102AB000C701A096EEE00C94EB11A0E0B0E0E3E6D5
:102AC000F5E10C94CF115C016B013A01FC01178216
:102AD00016828824EAC0812F90E00E946E16892B0E
:102AE00021F0C5010E941314E0C0153249F4F6012B
:102AF000F3FC6591F3FE61916F01653269F415E2B3
:102B0000C5010E94811697FDDCC0181709F4CDC0DD
:102B1000B5010E94C316DAC06A3219F0162F00E020
:102B200006C0F3FC1591F3FE11916F0101E09924A9
:102B30000FC00260692D70E080E090E040E20E94EA
:102B4000E513962EF601F3FC1591F3FE11916F013A
:102B5000212F20532A3068F301FD03C099249A9451
:102B600003C0992009F4B2C0183621F01C3699F43C
:102B7000F6010BC0F601F3FC6591F3FE6191683636
:102B800019F06F01162F07C008600460F3FC15915F
:102B9000F3FE11916F01112309F498C08EE791E0C3
:102BA000612F70E00E947616892B09F48FC0802F68
:102BB00000FF03C0EE24FF2407C0F301E080F18092
:102BC00022E030E0620E731E1E3651F4F50146819C
:102BD000578160E070E0C701202F0E94D91365C0C3
:102BE000133691F481FD02C099249394C5010E948B
:102BF000811697FD66C0E114F10419F0F701819385
:102C00007F019A9499F74FC01B3559F4C501692D7E
:102C1000A70196010E94B4146C01009709F043C00B
:102C20003DC0C5010E94131497FD4BC01F3659F1DA
:102C3000103728F4143629F1193639F527C013371F
:102C400019F0153711F51DC0C5010E948116EC0160
:102C500097FD11C00E946E16892B29F0CE01B50197
:102C60000E94C31608C0E114F10419F0F701C193E2
:102C70007F019A9449F7E114F104A9F0F701108259
:102C800012C0006203C0006101C00064C501692D6B
:102C9000A701202F0E942C14882329F4F501838199
:102CA000807379F413C000FF8394F501F380F6017B
:102CB000F3FC1591F3FE11916F01112309F00BCF75
:102CC00005C0882019F42FEF3FEF02C0282D30E017
:102CD000C901CDB7DEB7EEE00C94EB1191116DC0D8
:102CE000803219F089508550D0F70895FC01059085
:102CF000061621F00020D9F7C00108953197CF01C1
:102D00000895CF93DF93EC014B8140FF1AC046FF3B
:102D10000AC04F7B4B838E819F8101969F838E8358
:102D20008A81282F2BC042FF13C0E881F98180815E
:102D3000282F332727FD30952115310529F44062CE
:102D40004B832FEF3FEF1BC03196F983E88311C00F
:102D5000EA85FB85CE0109959C0197FF0AC09B81FE
:102D60002F5F3F4F11F080E201C080E1892B8B8300
:102D7000E8CF8E819F8101969F838E8330E0C901C9
:102D8000DF91CF9108959C01FB01838180FF11C0E9
:102D900086FD0FC09FEF2F3F390759F022838064D3
:102DA0008F7D83838681978101979783868330E027
:102DB00002C02FEF3FEFC901089599278827089592
:042DC000F894FFCFB5
:102DC4005B44454255475D205461726765742066D3
:102DD4007265713A20256420487A0A005B444542B2
:102DE40055475D20496E697469616C20544F503AAF
:102DF40020256C750A005B44454255475D20557398
:102E0400696E67207072657363616C65723A203114
:102E1400005B44454255475D205573696E672070D9
:102E240072657363616C65723A2038005B44454295
:102E340055475D2041646A757374656420544F502E
:102E44003A20256C750A005B44454255475D20498C
:102E54004352312028544F50293A2025750A005BEB
:102E640044454255475D204F435231412028647503
:102E74007479293A2025750A005B44454255475D1B
:102E8400205443435231413A203078253032580A95
:102E9400005B44454255475D205443435231423A16
:102EA400203078253032580A004672657175656E97
:102EB40063792073657420746F20256420487A0A2E
:102EC400004572726F723A204672657175656E6361
:102ED40079206D75737420626520312D3530303062
:102EE40020487A0044757479206379636C65207393
:102EF400657420746F20256425250A004572726F5D
:102F0400723A2044757479206379636C65206D7519
:102F1400737420626520302D31303025250A00502D
:102F2400574D20737461727465643A202564204897
:102F34007A2C202564252520647574790A0050575D
:102F44004D2073746F70706564004144433A2025CA
:102F540064202825752E2530327556290A00436FC2
:102F64006E74696E756F75732073616D706C696EC4
:102F740067207374617274656400436F6E74696E64
:102F8400756F75732073616D706C696E67207374EF
:102F94006F707065640050696E2050443520697309
:102FA400206E6F7720484947480050696E2050448E
:102FB40035206973206E6F77204C4F570050574D62
:102FC40020496E666F3A004F4646004F4E0020205F
:102FD4005374617475733A2025730A002020467275
:102FE400657175656E63793A20256420487A2028D6
:102FF40061637475616C290A00202044757479201A
:103004004379636C653A20256425250A0020204F06
:1030140075747075742050696E3A205044352028B8
:103024004F43314129002020414443204368616ECD
:103034006E656C3A205041302028414443302900C9
:10304400202041637475616C20467265713A2025B5
:103054006C7520487A0A0050494420656E61626CA0
:103064006564005049442064697361626C6564005E
:10307400536574706F696E743A2025640A00556E46
:103084006B6E6F776E20636F6D6D616E642E204181
:103094007661696C61626C653A00202046203C666A
:1030A4007265713E20202D2053657420667265710F
:1030B40075656E63792028312D3530303020487A9B
:1030C4002900202044203C647574793E20202D2062
:1030D4005365742064757479206379636C65202862
:1030E400302D3130302525290A002020532020207E
:1030F4002020202020202D205374617274205057EA
:103104004D002020542020202020202020202D206D
:1031140053746F702050574D0020205220202020DF
:1031240020202020202D205265616420414443202A
:103134006F6E63650020204D202020202020202059
:10314400202D20537461727420636F6E74696E75E0
:103154006F75732073616D706C696E670020204E0B
:103164002020202020202020202D2053746F702028
:10317400636F6E74696E756F75732073616D706CB7
:10318400696E67002020502020202020202020204D
:103194002D20456E61626C65205049440020205109
:1031A4002020202020202020202D204469736162CB
:1031B4006C652050494400202056203C736574708F
:1031C400743E202D20536574205049442073657447
:1031D400706F696E74002020582020202020202049
:1031E40020202D20546F67676C65207465737420EC
:1031F40070696E2050443500202049202020202072
:10320400202020202D2053686F7720696E666F0080
:1032140050574D2047656E657261746F7220526518
:1032240061647900436F6E6E6563742050574D205E
:103234006F757470757420285044352920746F207C
:1032440041444320696E7075742028504130290030
:10325400547970652027492720666F7220636F6D4B
:103264006D616E6473002534397300256400E803CE
:103274003200000001000000000000F8000000001F
:1032840000000200000000E4000000000000000054
:10329400000000000000010202030303030404040D
:1032A40004040404040505050505050505050505CF
:1032B40005050505050606060606060606060606AF
:1032C400060606060606060606060606060606069A
:1032D400060606060607070707070707070707077F
:1032E400070707070707070707070707070707076A
:1032F400070707070707070707070707070707075A
:103304000707070707070707070707070707070749
:10331400070707070708080808080808080808082E
:103324000808080808080808080808080808080819
:103334000808080808080808080808080808080809
:1033440008080808080808080808080808080808F9
:1033540008080808080808080808080808080808E9
:1033640008080808080808080808080808080808D9
:1033740008080808080808080808080808080808C9
:1033840008080808080808080808080808080808B9
:063394000808080808000B
:00000001FF
