:100000000C9444000C9461000C9461000C94610009
:100010000C9461000C9461000C9461000C946100DC
:100020000C9461000C9461000C9461000C946100CC
:100030000C9461000C9461000C9461000C946100BC
:100040000C9461000C9461000C9461000C946100AC
:100050000C9461000C9461000C9461000C9461009C
:100060000C9461000C9461000C9461000C9461008C
:100070000C9461000C9461000C9461006364696EDF
:100080006F70737578585B0011241FBECFEFD0E1FD
:10009000DEBFCDBF14E0A0E0B1E0E6EEF4E102C0C7
:1000A00005900D92AA3DB107D9F714E0AAEDB4E08E
:1000B00001C01D92A13EB107E1F70E9496030C9486
:1000C000710A0C9400001F93182F8A3019F48DE0E8
:1000D0000E9463008091C00085FFFCCF1093C60092
:1000E000212F332727FD3095C9011F910895809155
:1000F000C00087FFFCCF8091C60090E00895109269
:10010000C5008DE48093C40088E18093C10086E03F
:100110008093C2008CEC94E09093DE048093DD0425
:100120009093E0048093DF048EEB94E09093DC04E2
:100130008093DB04089580E480937C0086E88093BC
:100140007A00089580917A00806480937A0080918B
:100150007A0086FDFCCF2091780030917900C901AA
:100160000895EF92FF920F931F93DF93CF930F9217
:10017000CDB7DEB78091DA04882309F42DC1209130
:10018000BB043091BC0440E050E060E07BE187EBD1
:1001900090E00E94350479018A010894E108F10891
:1001A000010911092091BB043091BC0400D000D09A
:1001B00080E091E0ADB7BEB712969C938E931197F5
:1001C00014963C932E9313970E94570400D08CE111
:1001D00091E0EDB7FEB792838183ADB7BEB71396BA
:1001E000ED92FD920D931C9316970E945704EDB764
:1001F000FEB736960FB6F894FEBF0FBEEDBFF0E027
:10020000EF16F0E0FF06F1E00F07F0E01F0750F4F3
:1002100089E18093810086E391E00E946C0481E093
:1002200089833EC02091BB043091BC0440E050E083
:1002300093E0220F331F441F551F9A95D1F760E0BA
:100240007BE187EB90E00E94350479018A010894F4
:10025000E108F108010911098AE18093810081E533
:1002600091E00E946C0400D000D000D08CE691E0B8
:10027000ADB7BEB712969C938E931197EDB7FEB7AC
:10028000E382F482058316830E945704F8E0F98321
:100290008DB79EB706960FB6F8949EBF0FBE8DBF62
:1002A000F0928700E09286002091BD0430E040E0AB
:1002B00050E0C801B7010E94020424E630E040E0AB
:1002C00050E00E943504309389002093880082E832
:1002D00080938000209186003091870000D000D06C
:1002E00087E891E0ADB7BEB712969C938E931197B5
:1002F00014963C932E9313970E94570420918800E4
:10030000309189008FE991E0EDB7FEB79283818348
:10031000348323830E94570420918000EDB7FEB7F9
:10032000319689EB91E0ADB7BEB712969C938E9350
:100330001197228313820E94570420918100EDB708
:10034000FEB7319681ED91E0ADB7BEB712969C93A2
:100350008E931197228313820E9457042091860066
:100360003091870040E050E02F5F3F4F4F4F5F4F8D
:1003700060E07BE187EB90E00E943504C901DA017F
:100380009C01AD010F900F900F900F90B981B83084
:1003900039F483E056954795379527958A95D1F797
:1003A00000D000D000D089EE91E0EDB7FEB7928387
:1003B0008183ADB7BEB713962D933D934D935C9358
:1003C00016970E945704EDB7FEB736960FB6F8940D
:1003D000FEBF0FBEEDBF09C086E092E00E946C0434
:1003E00010928000109281005D980F90CF91DF9164
:1003F0001F910F91FF90EF900895559A0E94B100C0
:100400000895EF92FF920F931F93CF93DF93FC0118
:10041000EB01E081E23509F47DC0E3354CF4E634CC
:1004200089F0E93409F4CEC0E43409F053C127C09F
:10043000E43509F468C0E4350CF447C0E83509F048
:1004400049C1B4C0CB01019788589341A8F4709377
:10045000BC046093BB040E94B10000D000D08BE1CB
:1004600092E0ADB7BEB712969C938E9311971496F7
:10047000DC93CE93139714C083E392E04EC16536AC
:100480007105A8F46093BD040E94B10000D000D0B3
:1004900086E592E0EDB7FEB792838183D483C38370
:1004A0000E9457040F900F900F900F9038C100D00A
:1004B0008EE692E0ADB7BEB712969C938E931197DD
:1004C0000E9457040F900F902AC181E08093DA04B4
:1004D0000E94B1002091BB043091BC044091BD0446
:1004E00000D000D000D0EDB7FEB7319681E992E0A0
:1004F000ADB7BEB712969C938E9311973383228328
:1005000044831582DCC01092DA040E94B10080EBB3
:1005100092E003C180917A00806480937A00809198
:100520007A0086FDFCCFE0907800F0907900B7016A
:1005300080E090E024EE3CE040E050E00E940204C5
:100540008B019C017AE036952795179507957A954A
:10055000D1F78DB79EB708970FB6F8949EBF0FBE20
:100560008DBFEDB7FEB731968CEB92E0ADB7BEB75D
:1005700012969C938E931197F382E282C80168EEE3
:1005800073E00E94210475836483C80168EE73E000
:100590000E9421046AE070E00E9421047783668350
:1005A0000E945704EDB7FEB738968EC08BB190E22B
:1005B00089278BB95D9B03C080ED92E0AEC084EECD
:1005C00092E0ABC087EF92E00E946C048091DA0465
:1005D000882319F421E033E002C025E033E000D0A5
:1005E00000D088E093E0ADB7BEB712969C938E938F
:1005F000119714963C932E9313970E9457042091C1
:10060000BB043091BC0486E193E0EDB7FEB7928362
:100610008183348323830E9457042091BD04EDB766
:10062000FEB7319683E393E0ADB7BEB712969C93C5
:100630008E931197228313820E9457040F900F907C
:100640000F900F9087E493E00E946C0480E693E0A3
:100650000E946C048091DA04882309F460C0209120
:1006600086003091870040E050E02F5F3F4F4F4FB2
:100670005F4F60E07BE187EB90E00E943504C901A9
:10068000DA019C01AD018091810081FF07C063E028
:1006900056954795379527956A95D1F700D000D0A4
:1006A00000D08AE793E0EDB7FEB792838183ADB7C0
:1006B000BEB713962D933D934D935C9316970E946E
:1006C0005704EDB7FEB736960FB6F894FEBF0FBECF
:1006D000EDBF25C081E993E00E946C048DEA93E0B0
:1006E0000E946C0400D085ED93E0ADB7BEB71296C2
:1006F0009C938E9311970E9457040F900F908DEF4B
:1007000093E00E946C0485E194E00E946C048CE20A
:1007100094E00E946C0483E494E00E946C04DF91F6
:10072000CF911F910F91FF90EF900895AF92BF92DC
:10073000CF92DF92EF92FF920F931F93DF93CF93AD
:10074000CDB7DEB7E4970FB6F894DEBF0FBECDBFCE
:100750000E947F000E94FD0180E480937C0086E877
:1007600080937A008BE594E00E946C048FE694E01D
:100770000E946C048BE994E00E946C04F1EBAF2EB4
:10078000F4E0BF2E8E010D5F1F4F6E010894C11C57
:10079000D11CE7EBEE2EE4E0FE2E00D000D000D01E
:1007A000EDB7FEB73196ADB7BEB71296BC92AE921A
:1007B000119713830283D582C4820E94A104EDB7EE
:1007C000FEB736960FB6F894FEBF0FBEEDBF813070
:1007D000910521F4C80160E070E005C0029731F492
:1007E00069817A81C8010E940102D7CF00D0ADB7DC
:1007F000BEB71296FC92EE9211970E94A1040F9040
:100800000F90CBCF629FD001739FF001829FE00DCC
:10081000F11D649FE00DF11D929FF00D839FF00D7F
:10082000749FF00D659FF00D9927729FB00DE11D2B
:10083000F91F639FB00DE11DF91FBD01CF01112408
:100840000895AA1BBB1B51E107C0AA1FBB1FA61717
:10085000B70710F0A61BB70B881F991F5A95A9F769
:1008600080959095BC01CD010895A1E21A2EAA1B96
:10087000BB1BFD010DC0AA1FBB1FEE1FFF1FA21750
:10088000B307E407F50720F0A21BB30BE40BF50B4D
:10089000661F771F881F991F1A9469F760957095D6
:1008A000809590959B01AC01BD01CF010895A0E01A
:1008B000B0E0EDE5F4E00C944A0AFE013596619152
:1008C00071918091DD049091DE04AF010E94B60425
:1008D0002096E2E00C94660A0F931F93CF93DF9368
:1008E0008C01E091DD04F091DE04838181FF21C061
:1008F000C0E0D0E00DC0E091DD04F091DE04208581
:100900003185BF01F9010995892B11F0CFEFDFEF98
:10091000F80181918F01882371F7E091DD04F09156
:10092000DE04208531858AE0BF01F9010995892B14
:1009300011F0CFEFDFEFCE01DF91CF911F910F913B
:100940000895A0E0B0E0E7EAF4E00C944A0AFE0162
:100950003596619171918091DB049091DC04AF0137
:100960000E9417082096E2E00C94660AABE0B0E023
:10097000ECEBF4E00C943A0A3C012B015A01FC0127
:1009800017821682838181FD03C06FEF7FEFC6C19E
:100990009AE0892E1E010894211C311CF301238149
:1009A000F20123FD859123FF81912F01882309F412
:1009B000B2C1853239F423FD859123FF81912F0146
:1009C000853229F490E0B3010E949309E7CF982F74
:1009D000FF24EE249924FFE1FF15D0F09B3269F04B
:1009E0009C3228F4903259F0933291F40EC09D322B
:1009F00049F0903369F441E024C052E0F52A84E0E4
:100A0000F82A28C098E0F92A25C0E0E1FE2A22C091
:100A1000F7FC29C0892F80538A3070F4F6FE05C098
:100A2000989C902C1124980E15C0E89CE02C112461
:100A3000E80EF0E2FF2A0EC09E3229F4F6FC6BC1EC
:100A400040E4F42A07C09C3619F450E8F52A02C0A5
:100A5000983649F4F20123FD959123FF91912F01DE
:100A6000992309F0B8CF892F8554833018F080522C
:100A7000833038F444E050E0A40EB51E5FE35983A0
:100A80000FC0933631F0933779F0933509F056C0A3
:100A900020C0F5018081898342E050E0A40EB51E9C
:100AA000610101E010E012C0F501C080D180F6FCC8
:100AB00003C06FEF7FEF02C0692D70E042E050E0AD
:100AC000A40EB51EC6010E9446098C015FE7F522FF
:100AD00014C0F501C080D180F6FC03C06FEF7FEF3A
:100AE00002C0692D70E042E050E0A40EB51EC601C0
:100AF0000E943B098C0150E8F52AF3FE07C01AC09A
:100B000080E290E0B3010E949309EA948E2D90E078
:100B100008171907A8F30EC0F601F7FC8591F7FE38
:100B200081916F0190E0B3010E949309E110EA9472
:100B3000015010400115110579F7EAC0943611F003
:100B4000993669F5F7FE08C0F501208131814281AF
:100B5000538184E090E00AC0F501808191819C017D
:100B6000442737FD4095542F82E090E0A80EB91E2F
:100B70009FE6F92257FF09C0509540953095219581
:100B80003F4F4F4F5F4FE0E8FE2ACA01B901A10174
:100B90002AE030E00E94D909D82ED21840C09537FB
:100BA00029F41F2D1F7E2AE030E01DC01F2D197F64
:100BB0009F3661F0903720F4983509F0ACC00FC033
:100BC000903739F0983709F0A6C004C028E030E02B
:100BD0000AC0106114FD146020E130E004C014FD6F
:100BE000166020E132E017FF08C0F50160817181D5
:100BF0008281938144E050E008C0F50180819181B9
:100C0000BC0180E090E042E050E0A40EB51EA101DE
:100C10000E94D909D82ED2188FE7F82EF122F6FEBD
:100C20000BC05EEFF522D91438F4F4FE07C0F2FCD5
:100C300005C08FEEF82202C01D2D01C0192DF4FE53
:100C40000DC0FE01ED0DF11D8081803319F499EE88
:100C5000F92208C01F5FF2FE05C003C08F2D867801
:100C600009F01F5F0F2DF3FC14C0F0FE0FC01E151E
:100C700010F09D2C0BC09D2C9E0C911A1E2D06C0B1
:100C800080E290E0B3010E9493091F5F1E15C0F33C
:100C900004C01E1510F4E11A01C0EE2404FF0FC0B9
:100CA00080E390E0B3010E94930902FF1DC001FDA3
:100CB00003C088E790E00EC088E590E00BC0802F6D
:100CC000867891F001FF02C08BE201C080E2F7FC60
:100CD0008DE290E0B3010E94930906C080E390E0AA
:100CE000B3010E9493099A94D914C0F3DA94F101E4
:100CF000ED0DF11D808190E0B3010E949309DD208C
:100D0000A9F706C080E290E0B3010E949309EA943B
:100D1000EE20C1F743CEF30166817781CB012B969C
:100D2000E2E10C94560AFC0120FD08C023FD05C039
:100D300022FF02C073836283518340830895EF9240
:100D4000FF920F931F9344FF02C033E011C046FF90
:100D500002C034E00DC0DB01FC01AA0FBB1FEE1F77
:100D6000FF1F1094D1F76A0F7B1F8E1F9F1F31E06A
:100D7000660F771F881F991F3150D1F77B018C01B7
:100D8000E20EF11C011D111DA8019701B701CA0156
:100D90001F910F91FF90EF9008950F931F93CF93A2
:100DA000DF938C01C8010E945109EC0197FD08C036
:100DB0000E942809892BB1F7CE01B8010E94BF0912
:100DC000CE01DF91CF911F910F910895A0E0B0E087
:100DD000ECEEF6E00C94420AEC01C62E5A01122FFA
:100DE0000E945109AC018B3219F08D3251F4106818
:100DF000CA9409F46DC0CE010E945109AC0197FD5F
:100E000067C06DEFD62ED1228D2D807301F5403352
:100E1000F1F4CA9409F447C0CE010E945109AC0113
:100E200097FD41C082E0D82A483711F0483559F47F
:100E300080E4D82ACA94B9F1CE010E945109AC01CC
:100E400099232CF430C0D6FC02C080E1D82AEE24CD
:100E5000FF248701242F2053283088F0D4FC09C0B8
:100E60002A3068F0D6FE05C02F7D822F8151863052
:100E700028F0CA01BE010E94BF0912C02750C80154
:100E8000B7014D2D0E949F067B018C0182E0D82A7C
:100E9000CA9461F0CE010E945109AC0197FFDACFEC
:100EA000D1FC04C015C0EE24FF248701D7FE08C082
:100EB00010950095F094E094E11CF11C011D111DAA
:100EC000C501B801A7012D2D0E94930681E001C044
:100ED00080E0CDB7DEB7EAE00C945E0AA0E2B0E0B5
:100EE000E4E7F7E00C943E0A6C01A62E8A01790132
:100EF000FE01319680E2DF011D928A95E9F770E0EC
:100F000030E060E040E050E04F01A1E0B0E0F601E9
:100F10008381F70183FD259183FF21917F012223A6
:100F200009F47EC02E3519F44115510569F1872F5A
:100F300090E08417950744F42D3551F12D3221F4BA
:100F4000332329F431E021C0332309F4622F322FF7
:100F5000832F869586958695F401E80FF11D832FE2
:100F600087703D0102C0660C771C8A95E2F72081EC
:100F700026292083361711F430E007C0361710F405
:100F80003F5FE6CF3150E4CF71E04F5F5F4FBFCF9F
:100F9000332319F08E8180628E83772359F0FE010E
:100FA00031969E012F5D3F4F808180958193E2179E
:100FB000F307D1F7BB24B3944E010894811C911C14
:100FC000C6010E945109AC0197FD22C08695869505
:100FD0008695F401E80FF11D808190E09A01277059
:100FE000307002C0959587952A95E2F780FD05C07F
:100FF000CA01B6010E94BF090BC00115110519F005
:10100000D8014D938D01AA94BB24AA20C9F602C031
:10101000BB2031F40115110529F0F801108202C03E
:10102000EE24FF24C701A096EEE00C945A0AA0E03B
:10103000B0E0EDE1F8E00C943E0A5C016B013A018E
:10104000FC01178216828824EAC0812F90E00E945A
:101050002809892B21F0C5010E94CD06E0C0153278
:1010600049F4F601F3FC6591F3FE61916F0165327D
:1010700069F415E2C5010E94510997FDDCC01817FB
:1010800009F4CDC0B5010E94BF09DAC06A3219F077
:10109000162F00E006C0F3FC1591F3FE11916F01CD
:1010A00001E099240FC00260692D70E080E090E0BB
:1010B00040E20E949F06962EF601F3FC1591F3FE86
:1010C00011916F01212F20532A3068F301FD03C0D5
:1010D00099249A9403C0992009F4B2C0183621F0DB
:1010E0001C3699F4F6010BC0F601F3FC6591F3FE92
:1010F0006191683619F06F01162F07C0086004600F
:10110000F3FC1591F3FE11916F01112309F498C0BE
:101110008CE790E0612F70E00E943009892B09F480
:101120008FC0802F00FF03C0EE24FF2407C0F3010F
:10113000E080F18022E030E0620E731E1E3651F432
:10114000F5014681578160E070E0C701202F0E94C1
:10115000930665C0133691F481FD02C099249394DF
:10116000C5010E94510997FD66C0E114F10419F010
:10117000F70181937F019A9499F74FC01B3559F479
:10118000C501692DA70196010E946E076C010097A9
:1011900009F043C03DC0C5010E94CD0697FD4BC07C
:1011A0001F3659F1103728F4143629F1193639F55C
:1011B00027C0133719F0153711F51DC0C5010E945E
:1011C0005109EC0197FD11C00E942809892B29F0D3
:1011D000CE01B5010E94BF0908C0E114F10419F065
:1011E000F701C1937F019A9449F7E114F104A9F042
:1011F000F701108212C0006203C0006101C00064E8
:10120000C501692DA701202F0E94E606882329F435
:10121000F5018381807379F413C000FF8394F50195
:10122000F380F601F3FC1591F3FE11916F01112388
:1012300009F00BCF05C0882019F42FEF3FEF02C053
:10124000282D30E0C901CDB7DEB7EEE00C945A0A84
:1012500091110DC1803219F089508550D0F7089551
:10126000FC010590061621F00020D9F7C001089571
:101270003197CF010895FC01059061507040011035
:10128000D8F7809590958E0F9F1F0895FC016150AF
:10129000704001900110D8F7809590958E0F9F1F98
:1012A0000895CF93DF93EC014B8140FF1AC046FFB6
:1012B0000AC04F7B4B838E819F8101969F838E83D3
:1012C0008A81282F2BC042FF13C0E881F9818081D9
:1012D000282F332727FD30952115310529F4406249
:1012E0004B832FEF3FEF1BC03196F983E88311C08A
:1012F000EA85FB85CE0109959C0197FF0AC09B8179
:101300002F5F3F4F11F080E201C080E1892B8B837A
:10131000E8CF8E819F8101969F838E8330E0C90143
:10132000DF91CF9108950F931F93CF93DF938C019B
:10133000EB018B8181FF1BC082FF0DC02E813F819D
:101340008C819D812817390764F4E881F981019324
:10135000F983E88306C0E885F985802F0995892BF4
:1013600031F48E819F8101969F838E8302C00FEF9F
:101370001FEFC801DF91CF911F910F9108959C013C
:10138000FB01838180FF11C086FD0FC09FEF2F3FBF
:10139000390759F0228380648F7D8383868197810A
:1013A00001979783868330E002C02FEF3FEFC9019A
:1013B0000895FA01AA27283051F1203181F1E894EB
:1013C0006F936E7F6E5F7F4F8F4F9F4FAF4FB1E038
:1013D0003ED0B4E03CD0670F781F891F9A1FA11D33
:1013E000680F791F8A1F911DA11D6A0F711D811D34
:1013F000911DA11D20D009F468943F912AE0269FF9
:1014000011243019305D3193DEF6CF010895462F57
:101410004770405D4193B3E00FD0C9F7F6CF462F38
:101420004F70405D4A3318F0495D31FD40524193A1
:1014300002D0A9F7EACFB4E0A6959795879577955E
:101440006795BA95C9F700976105710508959B01E5
:10145000AC010A2E06945795479537952795BA956E
:10146000C9F7620F731F841F951FA01D0895992748
:10147000882708952F923F924F925F926F927F92AA
:101480008F929F92AF92BF92CF92DF92EF92FF9294
:101490000F931F93CF93DF93CDB7DEB7CA1BDB0B40
:1014A0000FB6F894DEBF0FBECDBF09942A883988E5
:1014B00048885F846E847D848C849B84AA84B984EC
:1014C000C884DF80EE80FD800C811B81AA81B981F8
:1014D000CE0FD11D0FB6F894DEBF0FBECDBFED010C
:0614E0000895F894FFCF0F
:1014E6005B44454255475D205461726765742066CA
:1014F6007265713A20256420487A0A005B444542A9
:1015060055475D20496E697469616C20544F503AA5
:1015160020256C750A005B44454255475D2055738E
:10152600696E67207072657363616C65723A20310B
:10153600005B44454255475D205573696E672070D0
:1015460072657363616C65723A2038005B4445428C
:1015560055475D2041646A757374656420544F5025
:101566003A20256C750A005B44454255475D204983
:101576004352312028544F50293A2025750A005BE2
:1015860044454255475D204F4352314120286475FA
:101596007479293A2025750A005B44454255475D12
:1015A600205443435231413A203078253032580A8C
:1015B600005B44454255475D205443435231423A0D
:1015C600203078253032580A005B44454255475D45
:1015D6002041637475616C20667265713A20256CD2
:1015E6007520487A0A005B44454255475D205057AE
:1015F6004D2064697361626C65640046726571753D
:10160600656E63792073657420746F2025642048A5
:101616007A0A004572726F723A2046726571756574
:101626006E6379206D75737420626520312D3530B7
:10163600303020487A0044757479206379636C658C
:101646002073657420746F20256425250A00457271
:10165600726F723A2044757479206379636C6520E1
:101666006D75737420626520302D31303025250A62
:101676000050574D20737461727465643A20256476
:1016860020487A2C202564252520647574790A0063
:1016960050574D2073746F70706564004144433A2F
:1016A600202564202825752E2530327556290A00F6
:1016B60050696E20504435206973206E6F7720483C
:1016C6004947480050696E20504435206973206EA2
:1016D6006F77204C4F570050574D20496E666F3A32
:1016E600004F4646004F4E002020537461747573B8
:1016F6003A2025730A0020204672657175656E636F
:10170600793A20256420487A202861637475616CD3
:10171600290A00202044757479204379636C653A60
:1017260020256425250A0020204F757470757420C5
:1017360050696E3A2050443520284F4331412900E4
:101746002020414443204368616E6E656C3A205008
:1017560041302028414443302900202041637475DC
:10176600616C20467265713A20256C7520487A0AAC
:1017760000556E6B6E6F776E20636F6D6D616E6474
:101786002E20417661696C61626C653A00202046C4
:10179600203C667265713E20202D205365742066BC
:1017A60072657175656E63792028312D353030305C
:1017B60020487A2900202044203C647574793E2014
:1017C600202D205365742064757479206379636CC9
:1017D600652028302D3130302525290A0020205358
:1017E6002020202020202020202D20537461727478
:1017F6002050574D0020205420202020202020203B
:10180600202D2053746F702050574D0020205220F9
:1018160020202020202020202D2052656164204198
:101826004443002020492020202020202020202D55
:101836002053686F7720696E666F0050574D2047BA
:10184600656E657261746F722052656164790043DA
:101856006F6E6E6563742050574D206F757470758A
:101866007420285044352920746F20414443206950
:101876006E707574202850413029005479706520A7
:1018860027492720666F7220636F6D6D616E6473E2
:1018960000257320256400252A7300E80332000022
:1018A60000010000000000007700000000000002B8
:0A18B60000000000630000000000C5
:00000001FF
