:100000000C94D9000C94F6000C94F6000C94F600B5
:100010000C94F6000C94F6000C94F6000C94F60088
:100020000C94F6000C94F6000C94F6000C94F60078
:100030000C94F6000C94F6000C94F6000C94F60068
:100040000C94F6000C94F6000C94F6000C94F60058
:100050000C94F6000C94F6000C94F6000C94F60048
:100060000C941C060C94F6000C94F6000C94F6000C
:100070000C94F6000C94F6000C94F6005A048C04D0
:1000800076049C0255047F028C048C0449038C0482
:100090008C048C042E0338038C04CC030404E70284
:1000A000C202E0028C0409043E043D038C047F0478
:1000B0006E616E00696E660000407A10F35A00A00F
:1000C000724E18090010A5D4E80000E87648170021
:1000D00000E40B54020000CA9A3B000000E1F50561
:1000E000000080969800000040420F000000A086AB
:1000F00001000000102700000000E80300000000DD
:100100006400000000000A00000000000100000080
:1001100000002C76D888DC674F0823DFC1DFAE599A
:10012000E1B1B796E5E3E453C63AE651997696E82D
:10013000E6C28426EB898C9B62ED407C6FFCEFBCB1
:100140009C9F40F2BAA56FA5F490055A2AF75C93DC
:100150006B6CF9676DC11BFCE0E40D47FEF520E612
:10016000B500D0ED902E0300943577050080841EF5
:10017000080000204E0A000000C80C333333330F50
:10018000986E12831141EF8D2114893BE65516CFED
:10019000FEE6DB18D1844B381BF77C1D901DA4BBF9
:1001A000E424203284725E228100C9F124ECA1E5AE
:1001B0003D2711241FBECFEFD0E1DEBFCDBF17E03A
:1001C000A0E0B1E0E0E0FAE202C005900D92A43DAB
:1001D000B107D9F719E0A4EDB7E001C01D92A3392A
:1001E000B107E1F70E94DE040C94FE140C940000A9
:1001F0001F93182F8A3019F48DE00E94F800809127
:10020000C00085FFFCCF1093C600212F332727FDA8
:100210003095C9011F9108958091C00087FFFCCFE0
:100220008091C60090E008951092C5008DE48093FF
:10023000C40088E18093C10086E08093C2008DEB0A
:1002400096E09093900980938F0990939209809300
:1002500091098FEA96E090938E0980938D09089515
:1002600080E480937C008EE880937A0078940895EF
:10027000F89480917A00806480937A0080917A006B
:1002800086FDFCCF20917800309179007894C901E7
:100290000895EF92FF920F931F938091D4078823C4
:1002A00009F402C12091AC063091AD0640E050E067
:1002B00060E07BE187EB90E00E94B61279018A0151
:1002C0000894E108F108010911098091D6078823F3
:1002D00069F58091AC069091AD0600D000D020E089
:1002E00031E0ADB7BEB712963C932E93119714969A
:1002F0009C938E9313970E944F1400D08CE191E051
:10030000EDB7FEB792838183ADB7BEB71396ED927A
:10031000FD920D931C9316970E944F14EDB7FEB7F4
:1003200036960FB6F894FEBF0FBEEDBFF0E0EF16A5
:10033000F0E0FF06F1E00F07F0E01F0768F489E145
:10034000809381008091D607882309F045C086E319
:1003500091E00E946B1440C02091AC063091AD0634
:1003600040E050E083E0220F331F441F551F8A9561
:10037000D1F760E07BE187EB90E00E94B612790153
:100380008A010894E108F108010911098AE18093C2
:1003900081008091D6078823F9F481E591E00E94DD
:1003A0006B1400D000D000D08CE691E0ADB7BEB7A2
:1003B00012969C938E931197EDB7FEB7E382F48269
:1003C000058316830E944F148DB79EB706960FB60D
:1003D000F8949EBF0FBE8DBFF0928700E09286001A
:1003E0002091AE0630E040E050E0C801B7010E9425
:1003F000701224E630E040E050E00E94B6123093E4
:1004000089002093880082E8809380008091D6073D
:10041000882309F04EC0209186003091870000D0DB
:1004200000D087E891E0ADB7BEB712969C938E934B
:10043000119714963C932E9313970E944F1420917A
:100440008800309189008FE991E0EDB7FEB7928383
:100450008183348323830E944F1420918000EDB761
:10046000FEB7319689EB91E0ADB7BEB712969C937B
:100470008E931197228313820E944F142091810042
:10048000EDB7FEB7319681ED91E0ADB7BEB71296EC
:100490009C938E931197228313820E944F140F9086
:1004A0000F900F900F9005C0109280001092810065
:1004B0005D981F910F91FF90EF900895559A0E94BB
:1004C00049010895EF92FF920F931F93CF93DF930B
:1004D000FC01EB018081992787FD9095A92FB92F09
:1004E000FC01E154F040EA31F10508F015C2E25C8C
:1004F000FF4FEE0FFF1F0590F491E02D0994CB0103
:10050000019788589341A8F47093AD066093AC06A8
:100510000E94490100D000D089EE91E0ADB7BEB78E
:1005200012969C938E9311971496DC93CE93139707
:1005300014C081E092E039C265367105A8F4609379
:10054000AE060E94490100D000D084E292E0EDB7EF
:10055000FEB792838183D483C3830E944F140F908C
:100560000F900F900F9023C200D08CE392E0ADB7B4
:10057000BEB712969C938E9311970E944F140F90C2
:100580000F9015C281E08093D4070E944901209109
:10059000AC063091AD064091AE0600D000D000D040
:1005A000EDB7FEB731968FE592E0ADB7BEB71296C4
:1005B0009C938E9311973383228344831582E6C0E4
:1005C0001092D4070E9449018EE792E0EEC10E948A
:1005D00038017C01BC0180E090E024EE3CE040E08A
:1005E00050E00E9470128B019C017AE036952795AD
:1005F000179507957A95D1F78DB79EB708970FB6DF
:10060000F8949EBF0FBE8DBFEDB7FEB731968AE856
:1006100092E0ADB7BEB712969C938E931197F3827A
:10062000E282C80168EE73E00E948F1275836483D2
:10063000C80168EE73E00E948F126AE070E00E94C9
:100640008F12778366830E944F14EDB7FEB73896FA
:100650000FB6F894FEBF0FBEEDBFA9C11092D6072A
:100660001092DC0781E08093D5078EE992E0C4C048
:100670001092D5078AEB92E098C18BB190E289275E
:100680008BB95D9B03C086ED92E08FC18AEE92E04C
:100690008CC18DEF92E00E946B148091D407882367
:1006A00019F427E033E002C02BE033E000D000D0A3
:1006B0008EE093E0ADB7BEB712969C938E931197E0
:1006C00014963C932E9313970E944F142091AC06DE
:1006D0003091AD068CE193E0EDB7FEB79283818354
:1006E000348323830E944F142091AE06EDB7FEB7EA
:1006F000319689E393E0ADB7BEB712969C938E9383
:100700001197228313820E944F140F900F900F9025
:100710000F908DE493E00E946B1486E693E00E94B4
:100720006B148091D407882309F441C1209186007D
:100730003091870040E050E02F5F3F4F4F4F5F4FB9
:1007400060E07BE187EB90E00E94B612C901DA011C
:100750009C01AD018091810081FF07C063E0569547
:100760004795379527956A95D1F700D000D000D0EE
:1007700080E893E0EDB7FEB792838183ADB7BEB753
:1007800013962D933D934D935C9316970E944F14AF
:10079000EDB7FEB736965CCF1092D50781E0809317
:1007A000D6078093D4076091EF077091F00780E03F
:1007B00090E024E630E040E050E00E9470122FEF1D
:1007C00033E040E050E00E94B6122093AE06609104
:1007D000AE0670E080E090E00E947B0C6093F10731
:1007E0007093F2078093F3079093F4071092FA073F
:1007F0001092F90787E993E00E946B1480917A00C8
:10080000806480937A00D3C01092D60783EA93E085
:10081000CCC0F4E060307F0770F5F8947093F00777
:100820006093EF071092FA071092F9076091AE06F5
:1008300070E080E090E00E947B0C6093F107709381
:10084000F2078093F3079093F4071092D9077894F6
:1008500000D000D080EB93E0ADB7BEB712969C936A
:100860008E9311978091EF079091F00714969C93C7
:100870008E93139772CE8EEB93E097C081E08093B6
:10088000D9071092D8072091D70700D000D0EDB734
:10089000FEB731968DED93E0ADB7BEB712969C933F
:1008A0008E9311972283138258CE1092D9078BEF23
:1008B00093E07BC0B4E060307B0708F078C08091A3
:1008C000D707883C08F073C08091D707E82FF0E085
:1008D000EE0FFF1FE350F84F718360838F5F8093AB
:1008E000D7078EE290E00E94641461C01092D7078F
:1008F0001092D8071092D90784E194E056C0109264
:10090000D6071092D5071092D4071092D9070E94EB
:10091000490187E294E049C084E394E00E946B14AB
:1009200080E594E00E946B1400D088E794E0EDB776
:10093000FEB7928381830E944F140F900F9080EA3C
:1009400094E00E946B1488EB94E00E946B148FEC8F
:1009500094E00E946B148BEE94E00E946B1483E190
:1009600095E00E946B148AE395E00E946B1483E586
:1009700095E00E946B148DE695E00E946B148CE864
:1009800095E00E946B148FEA95E00E946B1487ED4E
:1009900095E00E946B148DEF95E00E946B148CE142
:1009A00096E00E946B148EE396E00E946B14DF9138
:1009B000CF911F910F91FF90EF9008956F927F92CA
:1009C0008F929F92AF92BF92CF92DF92EF92FF925F
:1009D0000F931F93DF93CF93CDB7DEB7E2970FB698
:1009E000F894DEBF0FBECDBF0E9414010E945E02CC
:1009F00080E480937C008EE880937A00789483EE84
:100A000097E04DEC5CEC6CE47DE30AE017ED23E24B
:100A10003CE30F2EF0E0CF2EF0E0DF2EF0E0EF2EE3
:100A2000F0E0FF2EF02DA12CE2E0BE2E0E94C806C1
:100A300086E596E00E946B148AE696E00E946B14AD
:100A400086E996E00E946B141AE8812E12E0912E3E
:100A5000BCE2AB2EB1E0BB2E6E010894C11CD11CD0
:100A6000A2E06A2E712C6C0E7D1E8091D507882322
:100A700009F451C08FB7F894E090DA07F090DB07E3
:100A80008FBFB70180E090E024EE3CE040E050E012
:100A90000E9470128B019C01FAE0369527951795FC
:100AA0000795FA95D1F78DB79EB708970FB6F894CA
:100AB0009EBF0FBE8DBFEDB7FEB73196ADB7BEB7C7
:100AC00012969C928E921197F382E282C80168EE90
:100AD00073E00E948F1275836483C80168EE73E02F
:100AE0000E948F126AE070E00E948F127783668303
:100AF0000E944F1484EF91E02DB73EB7285F3F4F1F
:100B00000FB6F8943EBF0FBE2DBFF5013197F1F738
:100B10000197D9F78BC08091D607882309F486C046
:100B20008FB7F894E090DA07F090DB078FBFB7013A
:100B300080E090E024EE3CE040E050E00E94701243
:100B40008B019C01EAE03695279517950795EA9564
:100B5000D1F78DB79EB708970FB6F8949EBF0FBE1A
:100B60008DBFEDB7FEB73196ADB7BEB712969C926A
:100B70008E921197F382E282C80168EE73E00E94C0
:100B80008F1275836483C80168EE73E00E948F1230
:100B90006AE070E00E948F12778366830E944F1490
:100BA00084EF91E02DB73EB7285F3F4F0FB6F89422
:100BB0003EBF0FBE2DBFF5013197F1F70197D9F771
:100BC00035C09091C6009A30E9F49091E2079923DC
:100BD00059F18981813444F18B3534F5F601E90FFF
:100BE000F11D1082F30101C0319680818032E1F362
:100BF0008930D1F3CF010E940F13BC01C6010E94BE
:100C0000620212C09D3091F0892F80528F3560F4BE
:100C10008091E207813340F4F601E80FF11D9083E3
:100C20008F5F8093E20702C01092E2078091C000BC
:100C300088230CF01ACFC5CF1F920F920FB60F92D8
:100C400011242F933F934F935F936F937F938F93D1
:100C50009F93AF93BF93EF93FF9380917800909110
:100C600079002091DD073091DE074091DF07509138
:100C7000E007A0E0B0E0820F931FA41FB51F809390
:100C8000DD079093DE07A093DF07B093E007809124
:100C9000E1078F5F8093E1078091E107843608F4D4
:100CA00059C06091DD077091DE078091DF07909158
:100CB000E00724E630E040E050E00E94B6123093B6
:100CC000DB072093DA071092DD071092DE071092FF
:100CD000DF071092E0071092E1078091D607882382
:100CE000C9F18091DC078F5F8093DC078091DC077E
:100CF000833080F11092DC078091D9078823E1F0DE
:100D00008091D7078823C1F0E091D807F0E0EE0F7B
:100D1000FF1FE350F84F808191819093F0078093FB
:100D2000EF078091D8076091D70790E0019670E0B7
:100D30000E94A3128093D8076091DA077091DB07B5
:100D40004091AE0683EE97E00E94F9068093AE06CE
:100D50000E9449018091D607882321F48091D5070C
:100D6000882329F080917A00806480937A00FF9133
:100D7000EF91BF91AF919F918F917F916F915F9113
:100D80004F913F912F910F900FBE0F901F9018958C
:100D9000AF92BF92CF92DF92EF92FF920F931F9389
:100DA000FC0140835183628373830483158326830C
:100DB0003783C086D186E286F386B586A48680E036
:100DC00090E0A0E0B0E086879787A08BB18B828B04
:100DD000938BA48BB58B178A168A108E84E6818F2D
:100DE0001F910F91FF90EF90DF90CF90BF90AF9049
:100DF00008952F923F924F925F926F927F928F92BF
:100E00009F92AF92BF92CF92DF92EF92FF920F9399
:100E10001F93DF93CF9300D000D000D0CDB7DEB7C3
:100E20009E838D83FC0124843584261A370AB10100
:100E3000882777FD8095982F0E94C90B7B018C0134
:100E4000ED81FE8120813181428153810E94C3095D
:100E500069837A838B839C83ED81FE818689978960
:100E6000B101681B790B882777FD8095982F0E9428
:100E7000C90BED81FE8120853185428553850E9415
:100E8000C3092DE33AE047E55EE30E94BD0A2B016A
:100E90003C01ED81FE8164817581868197812DE31E
:100EA0003AE047E55EE30E94C309A80197010E946A
:100EB000C309ED81FE8126853785408951890E94CD
:100EC0009609ED81FE8166877787808B918B20E084
:100ED00030E040EA52E40E94690B181654F480E0B6
:100EE00090E0A0EAB2E4ED81FE8186879787A08B2F
:100EF000B18BED81FE81668577858089918920E0BF
:100F000030E040EA52EC0E94990B882354F480E0D0
:100F100090E0A0EAB2ECED81FE8186879787A08BF6
:100F2000B18B69817A818B819C81ED81FE812685DF
:100F30003785408951890E949609A30192010E9438
:100F400096095B016C01ED81FE81818D882E9924CB
:100F5000B401882777FD8095982F0E94C90B7B01EB
:100F60008C01C601B501A80197010E94690B1816F2
:100F7000B4F0ED81FE81808D882E9924B4018827FC
:100F800077FD8095982F0E94C90B7B018C01C601CB
:100F9000B501A80197010E94990B88239CF4C80110
:100FA000B70129813A814B815C810E946509A301C7
:100FB00092010E946509ED81FE8166877787808BAB
:100FC000918B05C0C601B5010E94270C4B01ED8134
:100FD000FE81378A268A882D26960FB6F894DEBFC2
:100FE0000FBECDBFCF91DF911F910F91FF90EF907A
:100FF000DF90CF90BF90AF909F908F907F906F9039
:101000005F904F903F902F900895FC0180E090E01A
:10101000A0E0B0E086879787A08BB18B828B938B03
:10102000A48BB58B178A168A0895FC01608F418FB7
:101030000895A0E0B0E0EFE1F8E00C94D812DC01F4
:101040002B01FA019C91923008F439C1EB0188819F
:10105000823008F433C1943069F4843009F02FC130
:1010600011969C9111978981981709F428C1ABECCE
:10107000B6E025C1843009F421C18230A9F4923050
:1010800009F01DC19A01AD0188E0EA010990AE01A5
:10109000E90109929E018150C1F7E201898111960F
:1010A0009C918923818308C1923009F407C112966B
:1010B0002D903C901397EB018A819B811496AD9003
:1010C000BD90CD90DC901797EC80FD800E811F8144
:1010D0009101281B390BB90137FF04C06627772718
:1010E000621B730B603271050CF061C0121613069F
:1010F0006CF537014801062E04C0969487947794C6
:1011000067940A94D2F721E030E040E050E004C058
:10111000220F331F441F551F6A95D2F721503040CC
:10112000404050402E213F214023512321153105BD
:101130004105510521F021E030E040E050E0790127
:101140008A01E628F728082919293CC0232BD1F168
:10115000260E371E35014601062E04C0969487944C
:10116000779467940A94D2F721E030E040E050E0B1
:1011700004C0220F331F441F551F6A95D2F7215018
:101180003040404050402A213B214C215D21211517
:1011900031054105510521F021E030E040E050E00B
:1011A00059016A01A628B728C828D9280BC082157A
:1011B00093052CF01C01AA24BB24650103C0EE2476
:1011C000FF24870111969C91D20111968C9198175A
:1011D00009F445C0992339F0A80197012A193B0960
:1011E0004C095D0906C0A60195012E193F09400B67
:1011F000510B57FD08C0118233822282248335832C
:10120000468357831DC081E08183338222828827F1
:101210009927DC01821B930BA40BB50B8483958368
:10122000A683B7830DC0220F331F441F551F24838D
:101230003583468357838281938101979383828389
:101240002481358146815781DA01C9010197A109BD
:10125000B1098F5F9F4FAF4FBF4328F30BC09183FE
:1012600033822282EA0CFB1C0C1D1D1DE482F582D8
:101270000683178383E080832481358146815781EB
:1012800057FF1AC0C901AA2797FDA095BA2F8170F0
:101290009070A070B0705695479537952795822B22
:1012A000932BA42BB52B84839583A683B78382814C
:1012B0009381019693838283DF0101C0D201CD0126
:1012C000CDB7DEB7E2E10C94F412A0E2B0E0EBE6B9
:1012D000F9E00C94E41269837A838B839C832D83D9
:1012E0003E834F835887E9E0EE2EF12CEC0EFD1E75
:1012F000CE010196B7010E94180E8E010F5E1F4F9E
:10130000CE010596B8010E94180E8A8991E08927BE
:101310008A8BC701B801AE01475E5F4F0E94190872
:101320000E94430DA096E6E00C940013A0E2B0E00A
:10133000ECE9F9E00C94E41269837A838B839C8353
:101340002D833E834F835887F9E0EF2EF12CEC0E6E
:10135000FD1ECE010196B7010E94180E8E010F5E90
:101360001F4FCE010596B8010E94180EC701B801A3
:10137000AE01475E5F4F0E9419080E94430DA09680
:10138000E6E00C940013A0E2B0E0E9ECF9E00C9484
:10139000D81269837A838B839C832D833E834F830A
:1013A0005887CE010196BE01675F7F4F0E94180EDD
:1013B000CE010596BE016F5E7F4F0E94180E998583
:1013C000923088F089898230C8F0943019F48230E4
:1013D00051F404C0843029F4923081F48BEC96E00F
:1013E000C6C0923049F420E09A858A89981321E09A
:1013F0002A87CE010996BBC0823049F420E09A8545
:101400008A89981321E02A8BCE014196B0C02D84A1
:101410003E844F8458886D887E888F88988CEE240F
:10142000FF248701AA24BB24650140E050E060E06E
:1014300070E0E0E0F0E0C10181709070892BE9F08C
:10144000E60CF71C081D191D9A01AB012A0D3B1D66
:101450004C1D5D1D80E090E0A0E0B0E0E614F704D4
:101460000805190520F481E090E0A0E0B0E0BA01A1
:10147000A901480F591F6A1F7B1FAA0CBB1CCC1C5B
:10148000DD1C97FE08C081E090E0A0E0B0E0A82A53
:10149000B92ACA2ADB2A3196E032F10549F0660CF6
:1014A000771C881C991C5694479437942794C3CF73
:1014B000FA85EA892B893C898B859C85280F391F01
:1014C0002E5F3F4F17C0CA0181709070892B61F069
:1014D00016950795F794E79480E090E0A0E0B0E8D7
:1014E000E82AF92A0A2B1B2B76956795579547957D
:1014F0002F5F3F4F77FDE7CF0CC0440F551F661F8E
:10150000771F17FD4160EE0CFF1C001F111F2150BB
:101510003040403090E0590790E0690790E4790747
:1015200060F32B8F3C8FDB01CA018F779070A07026
:10153000B07080349105A105B10561F447FD0AC082
:10154000E114F1040105110529F0405C5F4F6F4F74
:101550007F4F40781A8EFE1711F081E08A8F4D8FF1
:101560005E8F6F8F78A383E0898FCE0149960E94AA
:10157000430DA096E2E10C94F412A8E1B0E0E3EC94
:10158000FAE00C94E01269837A838B839C832D8329
:101590003E834F835887B9E0EB2EF12CEC0EFD1EF5
:1015A000CE010196B7010E94180E8E010F5E1F4FEB
:1015B000CE010596B8010E94180E2985223008F444
:1015C0007EC03989323010F4B8017CC08A859A898E
:1015D00089278A87243011F0223031F4231709F04B
:1015E0006EC06BEC76E06EC0343039F41D861E861A
:1015F0001F86188A1C861B8604C0323021F484E0C2
:101600008987B7015FC02B853C858B899C89281B06
:10161000390B3C872B87ED84FE840F851889AD88B4
:10162000BE88CF88D88CEA14FB040C051D0540F455
:10163000EE0CFF1C001F111F215030403C872B87F0
:1016400020E030E040E050E080E090E0A0E0B0E456
:1016500060E070E0EA14FB040C051D0540F0282B47
:10166000392B4A2B5B2BEA18FB080C091D09B69590
:10167000A79597958795EE0CFF1C001F111F6F5FB4
:101680007F4F6F31710531F7DA01C9018F779070A3
:10169000A070B07080349105A105B10561F427FDFB
:1016A0000AC0E114F1040105110529F0205C3F4F47
:1016B0004F4F5F4F20782D873E874F87588BBE0155
:1016C000675F7F4FCB010E94430D6896EAE00C9460
:1016D000FC12A8E1B0E0EFE6FBE00C94E4126983B1
:1016E0007A838B839C832D833E834F83588789E045
:1016F000E82EF12CEC0EFD1ECE010196B7010E94E2
:10170000180E8E010F5E1F4FCE010596B8010E9484
:10171000180E8985823040F08989823028F0C7010F
:10172000B8010E94900E01C08FEF6896E6E00C941D
:101730000013A8E1B0E0EFE9FBE00C94E412698348
:101740007A838B839C832D833E834F83588789E0E4
:10175000E82EF12CEC0EFD1ECE010196B7010E9481
:10176000180E8E010F5E1F4FCE010596B8010E9424
:10177000180E8985823040F08989823028F0C701AF
:10178000B8010E94900E01C081E06896E6E00C94DA
:101790000013A8E0B0E0EFECFBE00C94E1129B0139
:1017A000AC0183E08983DA01C9018827B7FD8395FD
:1017B0009927AA27BB27B82E2115310541055105C8
:1017C00019F482E089833AC08823A9F0203080E0B0
:1017D000380780E0480780E8580729F460E070E0A7
:1017E00080E09FEC30C0EE24FF248701E21AF30A68
:1017F000040B150B02C079018A018EE1C82ED12C91
:10180000DC82CB82ED82FE820F831887C801B7018C
:101810000E94F40C01971816190684F4082E04C0CF
:10182000EE0CFF1C001F111F0A94D2F7ED82FE82FE
:101830000F831887C81AD90ADC82CB82BA82CE01FC
:1018400001960E94430D2896E9E00C94FD12ACE04D
:10185000B0E0EDE2FCE00C94E81269837A838B83BC
:101860009C83CE010196BE016B5F7F4F0E94180ED4
:101870008D81823061F1823050F1843021F48E818B
:10188000882351F12EC02F81388537FD20C06E810D
:101890002F3131051CF06623F9F023C08EE190E072
:1018A000821B930B29853A854B855C8504C0569530
:1018B0004795379527958A95D2F76623B1F05095CD
:1018C0004095309521953F4F4F4F5F4F0EC020E020
:1018D00030E040E050E009C02FEF3FEF4FEF5FE70F
:1018E00004C020E030E040E050E8B901CA012C9685
:1018F000E2E00C940413A8E0B0E0E1E8FCE00C9412
:10190000E0127B018C01611571058105910519F4C7
:1019100082E0898360C083E089838EE1C82ED12C68
:10192000DC82CB82ED82FE820F831887C801B7016B
:101930000E94F40CFC013197F7FF3BC022273327AC
:101940002E1B3F0B57016801022E04C0D694C7948A
:10195000B794A7940A94D2F740E050E060E070E0BA
:1019600081E090E0A0E0B0E004C0880F991FAA1FBA
:10197000BB1F2A95D2F70197A109B1098E219F219A
:10198000A023B1230097A105B10521F041E050E06B
:1019900060E070E04A295B296C297D294D835E83D4
:1019A0006F8378878EE190E08E1B9F0B9C838B83E7
:1019B00012C0309781F00E2E04C0EE0CFF1C001FE9
:1019C000111F0A94D2F7ED82FE820F831887CE1A78
:1019D000DF0ADC82CB821A82CE0101960E94430D7F
:1019E0002896EAE00C94FC12EF92FF920F931F935B
:1019F0007B018C0180E0E81680E0F80681E00807B2
:101A000080E0180788F48FEFE816F104010511054E
:101A100031F028F088E090E0A0E0B0E017C080E06E
:101A200090E0A0E0B0E012C080E0E81680E0F806A8
:101A300080E0080781E0180728F088E190E0A0E046
:101A4000B0E004C080E190E0A0E0B0E020E230E04F
:101A500040E050E0281B390B4A0B5B0B04C0169585
:101A60000795F794E7948A95D2F7F701ED52F94F6D
:101A70008081281B310941095109C9011F910F912A
:101A8000FF90EF900895DF92EF92FF920F931F93D4
:101A9000FC01E480F58006811781D180808182304D
:101AA00048F480E090E0A0E1B0E0E82AF92A0A2BAF
:101AB0001B2BA5C0843009F49FC0823021F4EE2492
:101AC000FF24870105C0E114F1040105110519F493
:101AD000E0E0F0E096C0628173819FEF62387907A1
:101AE0000CF05BC022E83FEF261B370B2A31310593
:101AF0002CF020E030E040E050E02AC0B801A7011F
:101B0000022E04C076956795579547950A94D2F7AB
:101B100081E090E0A0E0B0E004C0880F991FAA1F08
:101B2000BB1F2A95D2F70197A109B1098E219F21E8
:101B3000A023B1230097A105B10521F081E090E039
:101B4000A0E0B0E09A01AB01282B392B4A2B5B2B8C
:101B5000DA01C9018F779070A070B0708034910560
:101B6000A105B10539F427FF09C0205C3F4F4F4F55
:101B70005F4F04C0215C3F4F4F4F5F4FE0E0F0E00C
:101B80002030A0E03A07A0E04A07A0E45A0710F08E
:101B9000E1E0F0E079018A0127C06038710564F561
:101BA000FB01E158FF4FD801C7018F779070A070FB
:101BB000B07080349105A105B10539F4E7FE0DC080
:101BC00080E490E0A0E0B0E004C08FE390E0A0E00B
:101BD000B0E0E80EF91E0A1F1B1F17FF05C016957F
:101BE0000795F794E794319687E016950795F79453
:101BF000E7948A95D1F705C0EE24FF248701EFEF23
:101C0000F0E06E2F679566276795902F9F77D794A2
:101C1000DD24D7948E2F8695492F462B582F5D298A
:101C2000B701CA011F910F91FF90EF90DF900895C7
:101C3000FC01DB01408151812281622F6F7770E0CE
:101C4000221F2227221F9381892F880F822B282F62
:101C500030E0991F9927991F11969C931197211590
:101C60003105A9F5411551056105710511F482E0B1
:101C700037C082E89FEF13969C938E9312979A0138
:101C8000AB0167E0220F331F441F551F6A95D1F740
:101C900083E08C930DC0220F331F441F551F1296F3
:101CA0008D919C911397019713969C938E93129705
:101CB000203080E0380780E0480780E4580758F378
:101CC00014962D933D934D935C93179708952F3F52
:101CD000310579F4411551056105710519F484E068
:101CE0008C93089564FF03C081E08C9312C01C9212
:101CF00010C02F57304013963C932E93129783E0D9
:101D00008C9387E0440F551F661F771F8A95D1F784
:101D1000706414964D935D936D937C93179708951B
:101D20001F93DC01FB019C91923008F447C0808135
:101D3000823008F443C0943051F411961C918430E1
:101D400099F58181682F70E0611B71093FC0843073
:101D500021F0923031F48230B9F18181882389F108
:101D60002DC011961C9111978230F1F081811817C6
:101D7000D9F412962D913C91139782819381821709
:101D8000930794F028173907BCF014968D919D9114
:101D90000D90BC91A02D2481358146815781281753
:101DA00039074A075B0718F4112341F00AC082176C
:101DB0009307A407B50740F4112319F061E070E020
:101DC00005C06FEF7FEF02C060E070E0CB011F91B4
:101DD0000895A1E1B0E0EFEEFEE00C94D8123C01D2
:101DE0007F876E876A01FC0117821682838181FDDD
:101DF00003C06FEF7FEF6FC39E012F5F3F4F398BA3
:101E0000288BF3012381EE85FF8523FD859123FF38
:101E10008191FF87EE87882309F45AC3853251F4F4
:101E2000EE85FF8523FD859123FF8191FF87EE8756
:101E3000853229F490E0B3010E942314E2CF982F59
:101E400010E0882499241032B0F49B3269F09C325F
:101E500028F4903251F0933271F40BC09D3239F076
:101E6000903349F4116028C01260146025C01860D6
:101E700023C0106121C017FD2AC0892F80538A30EA
:101E800078F416FF06C0FAE09F9E902C1124980E5D
:101E900013C03AE0839E802C1124880E10620CC07F
:101EA0009E3221F416FD14C3106406C09C3611F452
:101EB000106802C0983659F4EE85FF8523FD959190
:101EC00023FF9191FF87EE87992309F0BCCF892FDB
:101ED0008554833020F4812F8061905E07C0892F64
:101EE0008556833008F09FC1812F8F7E86FD02C00A
:101EF00076E0972E6FE3F62EF822953619F4F0E48B
:101F0000FF2A07C0963619F420E8F22A02C0911081
:101F10009A94F7FE0AC03BE3391518F45CE3B52E3A
:101F200002C0B92CB39427E009C047E0491520F45A
:101F3000BB2447E0942EF7CF292DBB24C60104967D
:101F40009D878C87F6016081718182819381AE01CA
:101F50004F5F5F4F0B2D0E942D136C010981202EC6
:101F6000332400FF04C003FD02C01DE209C0F1FEDE
:101F700002C01BE205C0F2FC02C010E001C010E28A
:101F8000C1018C709070892BB9F1112311F483E099
:101F900001C084E0881510F088240AC0881AF3FC78
:101FA00007C080E290E0B3010E9423148A94C9F72D
:101FB000112329F0812F90E0B3010E94231423FE06
:101FC00003C000EB10E00EC004EB10E00BC0E11406
:101FD000F10409F0805290E0B3010E9423140F5FD6
:101FE0001F4F05C0EF2CFF24F0E1EF22FF24F80182
:101FF0008491882361F714C1F7FE12C0BC0C24FE43
:1020000004C08A81813309F4BA941B141CF0BB24E8
:10201000B3942DC0F8E0FB1550F538E0B32E27C07F
:10202000F6FC25C0892D90E08C159D054CF02CEF19
:10203000C2162FEFD20624F030E8F32A01C09A949A
:10204000992049F0E2E0F0E0EC0FFD1FE90DF11DF1
:1020500080818033A1F3F7FE0AC0B92CB394892D97
:1020600090E0C816D90614F0992401C09C18F7FC1A
:1020700003C025E030E009C01C141D041CF021E061
:1020800030E003C096012F5F3F4F112311F02F5F07
:102090003F4F992029F0892D90E00196280F391F94
:1020A000882D90E02817390714F0882401C0821A7F
:1020B0004F2C5524C20189709070892B39F008C0CB
:1020C00080E290E0B3010E9423148A948820C1F733
:1020D000112329F0812F90E0B3010E94231443FEC5
:1020E00007C008C080E390E0B3010E9423148A94E3
:1020F0008820C1F7F7FE46C08601D7FE02C000E087
:1021000010E076010894E11CF11CE01AF10A41E0AC
:1021100050E04C0F5D1FE40EF51E26014B185108D0
:10212000892D90E0AA24BB24A81AB90A5FEF0F3FBB
:10213000150729F48EE290E0B3010E942314C01623
:10214000D10634F0401651061CF4F701808101C01D
:1021500080E3015010400894E11CF11C0A151B0596
:102160002CF090E0B3010E942314E0CF0C151D0564
:1021700039F49A81963318F4953311F424FE81E3EF
:1021800090E04BC08A81813309F00F7E90E0B3016B
:102190000E9423149920A1F08EE290E0B3010E94E6
:1021A000231412E0E1E0F0E0EC0FFD1FE10FF11D60
:1021B0001F5F808190E0B3010E9423149A9491F7ED
:1021C00044FC03C085E690E002C085E490E0B301E2
:1021D0000E942314D7FC05C0C114D10441F404FFAC
:1021E00006C0D094C194D108D3948DE201C08BE293
:1021F00090E0B3010E94231480E305C08F5F26EFB7
:102200003FEFC20ED31E3AE0C316D104BCF790E0F4
:10221000B3010E942314C601C096B3010E94231487
:10222000CC84DD8452C1933631F0933799F09335E5
:1022300009F059C023C0F601808189835E010894AA
:10224000A11CB11C22E030E0C20ED31E21E0E22E20
:10225000F12C12C0F601A080B18016FD03C06FEF13
:102260007FEF02C0692D70E022E030E0C20ED31E85
:10227000C5010E9410147C011F7713C0F601A080D5
:10228000B18016FD03C06FEF7FEF02C0692D70E0D3
:1022900022E030E0C20ED31EC5010E9405147C016D
:1022A000106813FF07C01BC080E290E0B3010E94DA
:1022B00023148A94882D90E0E816F906A8F30FC03D
:1022C000F50117FD859117FF81915F0190E0B30142
:1022D0000E94231481108A940894E108F108E11403
:1022E000F10471F7F2C0943611F0993689F517FFB1
:1022F00008C0F601208131814281538184E090E061
:102300000AC0F601808191819C01442737FD4095E8
:10231000542F82E090E0C80ED91E9FE6F92EF122DC
:1023200057FF09C050954095309521953F4F4F4F2D
:102330005F4F90E8F92ACA01B901AE014F5F5F4FC4
:102340002AE030E00E94A014E82EE889EE1A41C08D
:10235000953721F41F7E2AE030E01CC0197F9F369C
:1023600061F0903720F4983509F0B2C00FC0903773
:1023700039F0983709F0ACC004C028E030E00AC05A
:10238000106114FD146020E130E004C014FD1660FB
:1023900020E132E017FF08C0F6016081718182817F
:1023A000938144E050E008C0F60180819181BC0136
:1023B00080E090E042E050E0C40ED51EAE014F5FD9
:1023C0005F4F0E94A014E82E5889E51A8FE7F82E77
:1023D000F122F6FE0BC08EEFF822E91438F4F4FE79
:1023E00007C0F2FC05C09FEEF92202C01E2D01C0FD
:1023F000192DF4FE0DC0FE01EE0DF11D808180331C
:1024000019F4E9EEFE2208C01F5FF2FE05C003C00A
:102410008F2D867809F01F5F0F2DF3FC14C0F0FE9E
:102420000FC0181510F09E2C0BC09E2C980C911A02
:10243000182D06C080E290E0B3010E9423141F5FB4
:102440001815C0F304C0181510F4811A01C08824AF
:1024500004FF0FC080E390E0B3010E94231402FF49
:102460001DC001FD03C088E790E00EC088E590E044
:102470000BC0802F867891F001FF02C08BE201C073
:1024800080E2F7FC8DE290E0B3010E94231406C0C5
:1024900080E390E0B3010E9423149A94E914C0F3FE
:1024A000EA94E1E0F0E0EC0FFD1FEE0DF11D8081FC
:1024B00090E0B3010E942314EE2091F706C080E261
:1024C00090E0B3010E9423148A948820C1F799CC2C
:1024D000F30166817781CB016196E2E10C94F412FD
:1024E000629FD001739FF001829FE00DF11D649FF8
:1024F000E00DF11D929FF00D839FF00D749FF00D84
:10250000659FF00D9927729FB00DE11DF91F639F24
:10251000B00DE11DF91FBD01CF0111240895AA1BC3
:10252000BB1B51E107C0AA1FBB1FA617B70710F0BE
:10253000A61BB70B881F991F5A95A9F780959095F0
:10254000BC01CD01089597FB092E07260AD077FD1F
:1025500004D0E5DF06D000201AF4709561957F4F16
:102560000895F6F7909581959F4F0895A1E21A2E50
:10257000AA1BBB1BFD010DC0AA1FBB1FEE1FFF1F27
:10258000A217B307E407F50720F0A21BB30BE40B77
:10259000F50B661F771F881F991F1A9469F76095BE
:1025A0007095809590959B01AC01BD01CF01089578
:1025B0002F923F924F925F926F927F928F929F9253
:1025C000AF92BF92CF92DF92EF92FF920F931F9341
:1025D000CF93DF93CDB7DEB7CA1BDB0B0FB6F894F2
:1025E000DEBF0FBECDBF09942A88398848885F8432
:1025F0006E847D848C849B84AA84B984C884DF80A3
:10260000EE80FD800C811B81AA81B981CE0FD11D86
:102610000FB6F894DEBF0FBECDBFED010895FC01EB
:1026200088279927E89421912032E9F3293010F086
:102630002E30C8F32B3241F02D3239F4689404C0A7
:102640000E941B14820F911D219120532A30C0F348
:102650001EF4909581959F4F0895283008F027E04B
:102660003327DA01990F311D87FD916000966105CE
:10267000710539F432602E5F3D9330E32A95E1F71E
:1026800008959F3F30F080387105610509F03C5F87
:102690003C5F3D93913008F08068911DDF93CF93AC
:1026A0001F930F93FF92EF92192F987F9695E92F22
:1026B00096959695E90FFF27EE5EFE4F99273327F3
:1026C000EE24FF24A701E70105900894079428F45D
:1026D000360FE71EF81E491F511D660F771F881F12
:1026E000991F0694A1F70590079428F4E70EF81EA9
:1026F000491F561FC11D770F881F991F661F06941B
:10270000A1F70590079428F4F80E491F561FC71F1C
:10271000D11D880F991F661F771F0694A1F705909A
:10272000079420F4490F561FC71FD81F990F661F23
:10273000771F881F0694A9F784911095177041F0B0
:10274000D695C79557954795F794E7941A95C1F78D
:10275000E8EBF0E0689415901591359165919591AD
:1027600005907FE27395E118F10A430B560BC90BF4
:10277000D009C0F7E10CF11E431F561FC91FD01D21
:102780007EF4703311F48A95E6CFE894015030F06E
:10279000080F0AF40027021708F4202F2395022FB0
:1027A0007A3328F079E37D932A95E9F710C07D9379
:1027B0002A9589F6069497956795379517951794F6
:1027C000E118F10A430B560BC90BD00998F0239579
:1027D0007E9173957A3308F070E37C932013B8F7F9
:1027E0007E9170617D9330F0839571E37D9370E30A
:1027F0002A95E1F71124EF90FF900F911F91CF914F
:10280000DF91992787FD90950895FC01059061500F
:1028100070400110D8F7809590958E0F9F1F0895F6
:10282000FC016150704001900110D8F7809590959F
:102830008E0F9F1F08957AE0979F902D879F802D80
:10284000910D112408950F931F93CF93DF938C0163
:10285000EB018B8181FF1BC082FF0DC02E813F8168
:102860008C819D812817390764F4E881F9810193EF
:10287000F983E88306C0E885F985802F0995892BBF
:1028800031F48E819F8101969F838E8302C00FEF6A
:102890001FEFC801DF91CF911F910F910895A0E024
:1028A000B0E0E5E5F4E10C94E812FE0135966191A3
:1028B000719180918F0990919009AF010E94E90E6A
:1028C0002096E2E00C94041360918F0970919009B6
:1028D0000E94231408950F931F93CF93DF938C01CD
:1028E000E0918F09F0919009838181FF21C0C0E0C0
:1028F000D0E00DC0E0918F09F091900920853185DD
:10290000BF01F9010995892B11F0CFEFDFEFF80135
:1029100081918F01882371F7E0918F09F0919009DF
:10292000208531858AE0BF01F9010995892B11F0D5
:10293000CFEFDFEFCE01DF91CF911F910F9108957F
:10294000FA01AA27283051F1203181F1E8946F93E0
:102950006E7F6E5F7F4F8F4F9F4FAF4FB1E03ED086
:10296000B4E03CD0670F781F891F9A1FA11D680F24
:10297000791F8A1F911DA11D6A0F711D811D911D57
:10298000A11D20D009F468943F912AE0269F1124CC
:102990003019305D3193DEF6CF010895462F477030
:1029A000405D4193B3E00FD0C9F7F6CF462F4F708B
:1029B000405D4A3318F0495D31FD4052419302D0E9
:1029C000A9F7EACFB4E0A69597958795779567958F
:1029D000BA95C9F700976105710508959B01AC018F
:1029E0000A2E06945795479537952795BA95C9F7B6
:1029F000620F731F841F951FA01D0895F894FFCFC9
:102A00005B44454255475D2054617267657420669A
:102A10007265713A20256420487A0A005B44454279
:102A200055475D20496E697469616C20544F503A76
:102A300020256C750A005B44454255475D2055735F
:102A4000696E67207072657363616C65723A2031DC
:102A5000005B44454255475D205573696E672070A1
:102A600072657363616C65723A2038005B4445425D
:102A700055475D2041646A757374656420544F50F6
:102A80003A20256C750A005B44454255475D204954
:102A90004352312028544F50293A2025750A005BB3
:102AA00044454255475D204F4352314120286475CB
:102AB0007479293A2025750A005B44454255475DE3
:102AC000205443435231413A203078253032580A5D
:102AD000005B44454255475D205443435231423ADE
:102AE000203078253032580A004672657175656E5F
:102AF00063792073657420746F20256420487A0AF6
:102B0000004572726F723A204672657175656E6328
:102B100079206D75737420626520312D3530303029
:102B200020487A0044757479206379636C6520735A
:102B3000657420746F20256425250A004572726F24
:102B4000723A2044757479206379636C65206D75E1
:102B5000737420626520302D31303025250A0050F5
:102B6000574D20737461727465643A20256420485F
:102B70007A2C202564252520647574790A00505725
:102B80004D2073746F70706564004144433A202592
:102B900064202825752E2530327556290A00436F8A
:102BA0006E74696E756F75732073616D706C696E8C
:102BB00067207374617274656400436F6E74696E2C
:102BC000756F75732073616D706C696E67207374B7
:102BD0006F707065640050696E20504435206973D1
:102BE000206E6F7720484947480050696E20504456
:102BF00035206973206E6F77204C4F570050574D2A
:102C000020496E666F3A004F4646004F4E00202026
:102C10005374617475733A2025730A00202046723C
:102C2000657175656E63793A20256420487A20289D
:102C300061637475616C290A0020204475747920E1
:102C40004379636C653A20256425250A0020204FCE
:102C500075747075742050696E3A20504435202880
:102C60004F43314129002020414443204368616E95
:102C70006E656C3A20504130202841444330290091
:102C8000202041637475616C20467265713A20257D
:102C90006C7520487A0A0050494420656E61626C68
:102CA0006564005049442064697361626C65640026
:102CB000536574706F696E743A2025640A0045721A
:102CC000726F723A20536574706F696E74206D75FF
:102CD000737420626520302D3130323300547261BC
:102CE0006A6563746F72793A20256420706F696E2B
:102CF0007473206C6F616465640A005472616A6564
:102D000063746F7279206D6F6465206469736162AA
:102D10006C6564005472616A6563746F72792063D4
:102D20006C65617265640053797374656D207265BA
:102D300073657400556E6B6E6F776E20636F6D6D8B
:102D4000616E642E20417661696C61626C653A0047
:102D5000202046203C667265713E20202D20536560
:102D600074206672657175656E63792028312D3522
:102D700030303020487A2900202044203C6475748B
:102D8000793E20202D20536574206475747920636A
:102D900079636C652028302D3130302525290A00D3
:102DA0002020532020202020202020202D2053745C
:102DB0006172742050574D00202054202020202084
:102DC000202020202D2053746F702050574D00205C
:102DD00020522020202020202020202D20526561FC
:102DE0006420414443206F6E63650020204D202005
:102DF000202020202020202D205374617274206315
:102E00006F6E74696E756F75732073616D706C6928
:102E10006E670020204E2020202020202020202D02
:102E20002053746F7020636F6E74696E756F757365
:102E30002073616D706C696E670020205020202027
:102E40002020202020202D20456E61626C652050BE
:102E50004944002020512020202020202020202D07
:102E60002044697361626C652050494400202056FB
:102E7000203C73657470743E202D2053657420507F
:102E8000494420736574706F696E7400202041207E
:102E90003C76616C75653E202D204164642074721F
:102EA000616A6563746F727920706F696E74002057
:102EB00020572020202020202020202D2053746106
:102EC0007274207472616A6563746F7279207472AF
:102ED00061636B696E670020204520202020202040
:102EE0002020202D20456E64207472616A65637411
:102EF0006F727920747261636B696E670020204382
:102F00002020202020202020202D20436C6561726D
:102F1000207472616A6563746F7279002020582092
:102F200020202020202020202D20546F67676C65F2
:102F300020746573742070696E2050443500202021
:102F4000492020202020202020202D2053686F772A
:102F500020696E666F0050574D2047656E6572613F
:102F6000746F7220526561647900436F6E6E6563A1
:102F7000742050574D206F7574707574202850441C
:102F8000352920746F2041444320696E7075742088
:102F90002850413029005479706520274927206640
:102FA0006F7220636F6D6D616E647300E8033200B1
:102FB0000000010000000000000C01000000000003
:102FC0000200000000F80000000000000000000007
:102FD00000000000010202030303030404040404CC
:102FE0000404040505050505050505050505050594
:102FF0000505050606060606060606060606060674
:103000000606060606060606060606060606060660
:103010000606060707070707070707070707070743
:103020000707070707070707070707070707070730
:103030000707070707070707070707070707070720
:103040000707070707070707070707070707070710
:1030500007070708080808080808080808080808F3
:1030600008080808080808080808080808080808E0
:1030700008080808080808080808080808080808D0
:1030800008080808080808080808080808080808C0
:1030900008080808080808080808080808080808B0
:1030A00008080808080808080808080808080808A0
:1030B0000808080808080808080808080808080890
:1030C0000808080808080808080808080808080880
:0430D00008080800E4
:00000001FF
