:100000000C9444000C9461000C9461000C94610009
:100010000C9461000C9461000C9461000C946100DC
:100020000C9461000C9461000C9461000C946100CC
:100030000C9461000C9461000C9461000C946100BC
:100040000C9461000C9461000C9461000C946100AC
:100050000C9461000C9461000C9461000C9461009C
:100060000C94B2000C9461000C9461000C9461003B
:100070000C9461000C9461000C9461006364696EDF
:100080006F70737578585B0011241FBECFEFD0E1FD
:10009000DEBFCDBF17E0A0E0B1E0E8E2F4E202C0CD
:1000A00005900D92A230B107D9F717E0A2E0B7E0B2
:1000B00001C01D92A132B107E1F70E9445040C94E2
:1000C00012120C9400001F93182F8A3019F48DE03F
:1000D0000E9463008091C00085FFFCCF1093C60092
:1000E000212F332727FD3095C9011F910895809155
:1000F000C00087FFFCCF8091C60090E00895109269
:10010000C5008DE48093C40088E18093C10086E03F
:100110008093C2008BEE95E090931E0780931D079D
:100120009093200780931F078DED95E090931C0717
:1001300080931B07089580E480937C008EE8809371
:100140007A007894089580917A00806480937A0090
:1001500080917A0086FDFCCF209178003091790063
:10016000C90108951F920F920FB60F921124EF92BA
:10017000FF920F931F932F933F934F935F936F9330
:100180007F938F939F93AF93BF93EF93FF93809150
:100190000307882309F456C0E0907800F0907900B6
:1001A000B70180E090E024EE3CE040E050E00E94A7
:1001B000A30B8B019C018AE036952795179507952F
:1001C0008A95D1F78DB79EB708970FB6F8949EBF62
:1001D0000FBE8DBFEDB7FEB7319680E091E0ADB7B1
:1001E000BEB712969C938E931197F382E282C80158
:1001F00068EE73E00E94C20B75836483C80168EEE9
:1002000073E00E94C20B6AE070E00E94C20B778329
:1002100066830E942F0C28EE33E08DB79EB70896B8
:100220000FB6F8949EBF0FBE8DBF4CE251E0CA01DD
:100230000197F1F721503040D1F780917A00806426
:1002400080937A00FF91EF91BF91AF919F918F9131
:100250007F916F915F914F913F912F911F910F91DE
:10026000FF90EF900F900FBE0F901F901895EF9298
:10027000FF920F931F9380910207882309F402C114
:100280002091DA053091DB0540E050E060E07BE151
:1002900087EB90E00E94D60B79018A010894E1086F
:1002A000F1080109110980910407882369F58091FB
:1002B000DA059091DB0500D000D024E131E0ADB744
:1002C000BEB712963C932E93119714969C938E93DF
:1002D00013970E942F0C00D080E391E0EDB7FEB79A
:1002E00092838183ADB7BEB71396ED92FD920D93C5
:1002F0001C9316970E942F0CEDB7FEB736960FB6DB
:10030000F894FEBF0FBEEDBFF0E0EF16F0E0FF0681
:10031000F1E00F07F0E01F0768F489E180938100A6
:1003200080910407882309F045C08AE491E00E9487
:10033000440C40C02091DA053091DB0540E050E0EC
:1003400093E0220F331F441F551F9A95D1F760E0A9
:100350007BE187EB90E00E94D60B79018A0108943B
:10036000E108F108010911098AE180938100809177
:1003700004078823F9F485E691E00E94440C00D03C
:1003800000D000D080E891E0ADB7BEB712969C9344
:100390008E931197EDB7FEB7E382F482058316833F
:1003A0000E942F0C8DB79EB706960FB6F8949EBF8D
:1003B0000FBE8DBFF0928700E09286002091DC0591
:1003C00030E040E050E0C801B7010E94A30B24E6F2
:1003D00030E040E050E00E94D60B3093890020933B
:1003E000880082E88093800080910407882309F0C8
:1003F0004EC0209186003091870000D000D08BE95C
:1004000091E0ADB7BEB712969C938E931197149658
:100410003C932E9313970E942F0C209188003091CB
:10042000890083EB91E0EDB7FEB79283818334833B
:1004300023830E942F0C20918000EDB7FEB73196E8
:100440008DEC91E0ADB7BEB712969C938E93119749
:10045000228313820E942F0C20918100EDB7FEB7FA
:10046000319685EE91E0ADB7BEB712969C938E9310
:100470001197228313820E942F0C0F900F900F90E0
:100480000F9005C010928000109281005D981F911E
:100490000F91FF90EF900895559A0E9437010895AB
:1004A000EF92FF920F931F93CF93DF93FC01EB0129
:1004B000E081E03509F47BC1E13594F4E93409F4D5
:1004C000EEC0EA3434F4E434A1F1E63409F09BC11F
:1004D0001DC0ED3409F4BEC0EE3409F094C1CEC0A5
:1004E000E33509F446C0E4353CF4E13509F46DC167
:1004F000E23509F088C162C0E63509F46BC1E83520
:1005000009F4C1C0E43509F07EC151C0CB010197A7
:100510008858934158F47093DB056093DA050E9484
:10052000370100D000D08DEF91E05CC185E192E011
:10053000A3C16536710578F46093DC050E9437012C
:1005400000D000D088E392E0EDB7FEB792838183BC
:10055000D483C38351C100D080E592E0ADB7BEB76C
:1005600012969C938E9311970E942F0C0F900F90D0
:1005700085C181E0809302070E9437012091DA054E
:100580003091DB054091DC0500D000D000D0EDB704
:10059000FEB7319683E792E0ADB7BEB712969C9353
:1005A0008E9311973383228344831582F5C0109272
:1005B00002070E94370182E992E05EC180917A00D1
:1005C000806480937A0080917A0086FDFCCFE09071
:1005D0007800F0907900B70180E090E024EE3CE0F4
:1005E00040E050E00E94A30B8B019C017AE036951D
:1005F0002795179507957A95D1F78DB79EB70897E8
:100600000FB6F8949EBF0FBE8DBFEDB7FEB7319603
:1006100080E091E0ADB7BEB712969C938E93119790
:10062000F382E282C80168EE73E00E94C20B758318
:100630006483C80168EE73E00E94C20B6AE070E058
:100640000E94C20B778366830E942F0CEDB7FEB722
:100650003896A7C080910407882369F481E08093CD
:1006600003078EE992E00E94440C80917A00806436
:1006700080937A0003C18AEB92E0FEC010920307D8
:1006800084EE92E0F9C08BB190E289278BB95D9B33
:1006900003C080E093E0F0C084E193E0EDC087E226
:1006A00093E00E94440C80910207882319F421E30F
:1006B00033E002C025E333E000D000D088E393E0CC
:1006C000ADB7BEB712969C938E93119714963C9338
:1006D0002E9313970E942F0C2091DA053091DB05A1
:1006E00086E493E0EDB7FEB792838183348323835E
:1006F0000E942F0C2091DC05EDB7FEB7319683E602
:1007000093E0ADB7BEB712969C938E931197228358
:1007100013820E942F0C0F900F900F900F9087E77D
:1007200093E00E94440C80E993E00E94440C809185
:100730000207882309F4A2C0209186003091870027
:1007400040E050E02F5F3F4F4F4F5F4F60E07BE155
:1007500087EB90E00E94D60BC901DA019C01AD0144
:100760008091810081FF07C063E0569547953795DA
:1007700027956A95D1F700D000D000D08AEA93E09F
:10078000EDB7FEB792838183ADB7BEB713962D93B5
:100790003D934D935C9316970E942F0CEDB7FEB7D7
:1007A00036960FB6F894FEBF0FBEEDBF67C010922D
:1007B000030781E0809304078093020785E097E0B8
:1007C0000E94E80581EC93E057C0109204078DEC7D
:1007D00093E052C0709312076093110700D000D0CD
:1007E0008AED93E0ADB7BEB712969C938E931197A6
:1007F0001496DC93CE9313970E942F0C0F900F90BA
:100800000F900F903BC088EE93E00E94440C84E070
:1008100094E00E94440C00D08CE294E0EDB7FEB767
:10082000928381830E942F0C0F900F9084E594E0B7
:100830000E94440C8CE694E00E94440C83E894E00F
:100840000E94440C8FE994E00E94440C87EC94E0F1
:100850000E94440C8EEE94E00E94440C87E095E0E8
:100860000E94440C81E295E00E94440C80E495E0F3
:100870000E94440C82E695E00E94440CDF91CF91E7
:100880001F910F91FF90EF9008958F929F92AF92DA
:10089000BF92CF92DF92EF92FF920F931F93DF935D
:1008A000CF93CDB7DEB7E4970FB6F894DEBF0FBE97
:1008B000CDBF0E947F000E944C0280E480937C00A8
:1008C0008EE880937A00789485E097E04DEC5CECBC
:1008D0006CE47DE30AE017ED23EA3BE30F2EFAE038
:1008E000CF2EF7EDDF2EF3E2EF2EFCE3FF2EF02DFF
:1008F000A12CB2E0BB2E0E94F3048AE795E00E948F
:10090000440C8EE895E00E94440C8AEB95E00E942E
:10091000440CA0ED8A2EA5E09A2E8E010D5F1F4F8C
:100920005E010894A11CB11CF6EDCF2EF5E0DF2E80
:10093000ECE2EE2EE1E0FE2E00D000D000D0EDB7CC
:10094000FEB73196ADB7BEB712969C928E921197B4
:1009500013830283B582A4820E94790CEDB7FEB79F
:1009600036960FB6F894FEBF0FBEEDBF81309105ED
:1009700021F4C80160E070E005C0029731F469819C
:100980007A81C8010E9450020BC000D0ADB7BEB73B
:100990001296DC92CE9211970E94790C0F900F90D4
:1009A00080910407882341F280917A0080648093CB
:1009B0007A0080917A0086FDFCCF6091780070917A
:1009C00079004091DC0585E097E00E942005809346
:1009D000DC050E94370188EE93E0F7013197F1F7CB
:1009E0000197D9F7A9CFAF92BF92CF92DF92EF9242
:1009F000FF920F931F93FC014083518362837383A3
:100A00000483158326833783C086D186E286F386E6
:100A1000B586A48680E090E0A0E0B0E08687978766
:100A2000A08BB18B138A128A148A84E6858B1F915E
:100A30000F91FF90EF90DF90CF90BF90AF9008950F
:100A4000BF92CF92DF92EF92FF920F931F93CF93BB
:100A5000DF93EC01B42ECC84DD84C61AD70AB6012C
:100A6000882777FD8095982F0E94FC087B018C01D8
:100A70002AE037ED43E25CE30E94A2072E853F8522
:100A8000488959890E9475076E877F87888B998B63
:100A900020E030E048EC52E40E949C08181644F430
:100AA00080E090E0A8ECB2E48E879F87A88BB98B9A
:100AB0006E857F858889998920E030E048EC52EC8A
:100AC0000E94CC08882344F480E090E0A8ECB2ECCB
:100AD0008E879F87A88BB98BC801B7012881398180
:100AE0004A815B810E94A2077B018C016C817D8120
:100AF0008E819F812E853F85488959890E94A20752
:100B00009B01AC01C801B7010E9475077B018C01F4
:100B10008A899B89B601681B790B882777FD8095A8
:100B2000982F0E94FC08288539854A855B850E949C
:100B3000A2079B01AC01C801B7010E9475077B01A8
:100B40008C01DB8ACA8A20E030E040EA50E40E944F
:100B50009C0818165CF40F2EF0E0EF2EF0E0FF2E4C
:100B6000F0EA0F2FF0E41F2FF02D14C0C801B701D9
:100B700020E030E040EA50EC0E94CC08882354F496
:100B80000F2EF0E0EF2EF0E0FF2EF0EA0F2FF0EC4A
:100B90001F2FF02DC801B7010E945A098D8990E0DE
:100BA0006B0D711D861797070CF4BC018C89282FDB
:100BB00030E0621773070CF4B901862FDF91CF91F3
:100BC0001F910F91FF90EF90DF90CF90BF9008950D
:100BD000FC0180E090E0A0E0B0E086879787A08BE2
:100BE000B18B138A128A0895FC01648B458B08959A
:100BF000A0E0B0E0EEEFF5E00C94F80BDC012B0187
:100C0000FA019C91923008F439C1EB01888182305D
:100C100008F433C1943069F4843009F02FC111967F
:100C20009C9111978981981709F428C1A9EFB5E023
:100C300025C1843009F421C18230A9F4923009F031
:100C40001DC19A01AD0188E0EA010990AE01E901F8
:100C500009929E018150C1F7E201898111969C9110
:100C60008923818308C1923009F407C112962D901F
:100C70003C901397EB018A819B811496AD90BD90B7
:100C8000CD90DC901797EC80FD800E811F81910143
:100C9000281B390BB90137FF04C066277727621B71
:100CA000730B603271050CF061C0121613066CF5FF
:100CB00037014801062E04C0969487947794679470
:100CC0000A94D2F721E030E040E050E004C0220F67
:100CD000331F441F551F6A95D2F7215030404040C2
:100CE00050402E213F21402351232115310541053C
:100CF000510521F021E030E040E050E079018A0127
:100D0000E628F728082919293CC0232BD1F1260E03
:100D1000371E35014601062E04C0969487947794B9
:100D200067940A94D2F721E030E040E050E004C03C
:100D3000220F331F441F551F6A95D2F721503040B0
:100D4000404050402A213B214C215D212115310595
:100D50004105510521F021E030E040E050E059012B
:100D60006A01A628B728C828D9280BC08215930580
:100D70002CF01C01AA24BB24650103C0EE24FF242F
:100D8000870111969C91D20111968C91981709F4C4
:100D900045C0992339F0A80197012A193B094C094C
:100DA0005D0906C0A60195012E193F09400B510BA4
:100DB00057FD08C011823382228224833583468303
:100DC00057831DC081E0818333822282882799273F
:100DD000DC01821B930BA40BB50B84839583A68344
:100DE000B7830DC0220F331F441F551F2483358343
:100DF00046835783828193810197938382832481E1
:100E0000358146815781DA01C9010197A109B109EC
:100E10008F5F9F4FAF4FBF4328F30BC09183338247
:100E20002282EA0CFB1C0C1D1D1DE482F582068348
:100E3000178383E08083248135814681578157FF62
:100E40001AC0C901AA2797FDA095BA2F817090708A
:100E5000A070B0705695479537952795822B932BA8
:100E6000A42BB52B84839583A683B783828193813A
:100E7000019693838283DF0101C0D201CD01CDB7FA
:100E8000DEB7E2E10C94140CA0E2B0E0EAE4F7E093
:100E90000C94040C69837A838B839C832D833E831B
:100EA0004F835887E9E0EE2EF12CEC0EFD1ECE01AB
:100EB0000196B7010E94D20A8E010F5E1F4FCE012C
:100EC0000596B8010E94D20A8A8991E089278A8B07
:100ED000C701B801AE01475E5F4F0E94F8050E944E
:100EE000FD09A096E6E00C94200CA0E2B0E0EBE750
:100EF000F7E00C94040C69837A838B839C832D83A5
:100F00003E834F835887F9E0EF2EF12CEC0EFD1E47
:100F1000CE010196B7010E94D20A8E010F5E1F4FCB
:100F2000CE010596B8010E94D20AC701B801AE01F0
:100F3000475E5F4F0E94F8050E94FD09A096E6E01B
:100F40000C94200CA0E2B0E0E8EAF7E00C94F80B77
:100F500069837A838B839C832D833E834F83588759
:100F6000CE010196BE01675F7F4F0E94D20ACE017B
:100F70000596BE016F5E7F4F0E94D20A998592301E
:100F800088F089898230C8F0943019F4823051F4A5
:100F900004C0843029F4923081F489EF95E0C6C012
:100FA000923049F420E09A858A89981321E02A87B3
:100FB000CE010996BBC0823049F420E09A858A8927
:100FC000981321E02A8BCE014196B0C02D843E8437
:100FD0004F8458886D887E888F88988CEE24FF24F3
:100FE0008701AA24BB24650140E050E060E070E086
:100FF000E0E0F0E0C10181709070892BE9F0E60C2F
:10100000F71C081D191D9A01AB012A0D3B1D4C1D33
:101010005D1D80E090E0A0E0B0E0E614F704080574
:10102000190520F481E090E0A0E0B0E0BA01A90148
:10103000480F591F6A1F7B1FAA0CBB1CCC1CDD1C50
:1010400097FE08C081E090E0A0E0B0E0A82AB92AAD
:10105000CA2ADB2A3196E032F10549F0660C771C8A
:10106000881C991C5694479437942794C3CFFA85CB
:10107000EA892B893C898B859C85280F391F2E5F37
:101080003F4F17C0CA0181709070892B61F016958F
:101090000795F794E79480E090E0A0E0B0E8E82AB4
:1010A000F92A0A2B1B2B76956795579547952F5F45
:1010B0003F4F77FDE7CF0CC0440F551F661F771FCA
:1010C00017FD4160EE0CFF1C001F111F2150304026
:1010D000403090E0590790E0690790E4790760F3A9
:1010E0002B8F3C8FDB01CA018F779070A070B0709E
:1010F00080349105A105B10561F447FD0AC0E114F2
:10110000F1040105110529F0405C5F4F6F4F7F4FDF
:1011100040781A8EFE1711F081E08A8F4D8F5E8F16
:101120006F8F78A383E0898FCE0149960E94FD09D5
:10113000A096E2E10C94140CA8E1B0E0E2EAF8E039
:101140000C94040C69837A838B839C832D833E8368
:101150004F83588789E0E82EF12CEC0EFD1ECE015E
:101160000196B7010E94D20A8E010F5E1F4FCE0179
:101170000596B8010E94D20A8985823040F089899B
:10118000823028F0C701B8010E944A0B01C08FEFDE
:101190006896E6E00C94200CA8E1B0E0E2EDF8E0FF
:1011A0000C94040C69837A838B839C832D833E8308
:1011B0004F83588789E0E82EF12CEC0EFD1ECE01FE
:1011C0000196B7010E94D20A8E010F5E1F4FCE0119
:1011D0000596B8010E94D20A8985823040F089893B
:1011E000823028F0C701B8010E944A0B01C081E09B
:1011F0006896E6E00C94200CA8E0B0E0E2E0F9E0AC
:101200000C94010C9B01AC0183E08983DA01C901D4
:101210008827B7FD83959927AA27BB27B82E2115C4
:1012200031054105510519F482E089833AC08823CC
:10123000A9F0203080E0380780E0480780E85807B0
:1012400029F460E070E080E09FEC30C0EE24FF24E1
:101250008701E21AF30A040B150B02C079018A0117
:101260008EE1C82ED12CDC82CB82ED82FE820F83F0
:101270001887C801B7010E94AE0901971816190610
:1012800084F4082E04C0EE0CFF1C001F111F0A94EA
:10129000D2F7ED82FE820F831887C81AD90ADC8242
:1012A000CB82BA82CE0101960E94FD092896E9E020
:1012B0000C941D0CACE0B0E0E0E6F9E00C94080CF6
:1012C00069837A838B839C83CE010196BE016B5F19
:1012D0007F4F0E94D20A8D81823061F1823050F1BD
:1012E000843021F48E81882351F12EC02F813885DE
:1012F00037FD20C06E812F3131051CF06623F9F0D7
:1013000023C08EE190E0821B930B29853A854B85A3
:101310005C8504C056954795379527958A95D2F7F1
:101320006623B1F050954095309521953F4F4F4F32
:101330005F4F0EC020E030E040E050E009C02FEFEA
:101340003FEF4FEF5FE704C020E030E040E050E8BF
:10135000B901CA012C96E2E00C94240CEF92FF92A2
:101360000F931F937B018C0180E0E81680E0F80664
:1013700081E0080780E0180788F48FEFE816F10491
:101380000105110531F028F088E090E0A0E0B0E020
:1013900017C080E090E0A0E0B0E012C080E0E81666
:1013A00080E0F80680E0080781E0180728F088E16F
:1013B00090E0A0E0B0E004C080E190E0A0E0B0E008
:1013C00020E230E040E050E0281B390B4A0B5B0B79
:1013D00004C016950795F794E7948A95D2F7F7011C
:1013E000EF5FF94F8081281B310941095109C9017B
:1013F0001F910F91FF90EF900895DF92EF92FF926F
:101400000F931F93FC01E480F58006811781D18042
:101410008081823048F480E090E0A0E1B0E0E82AEA
:10142000F92A0A2B1B2BA5C0843009F49FC08230F7
:1014300021F4EE24FF24870105C0E114F104010525
:10144000110519F4E0E0F0E096C0628173819FEF2E
:10145000623879070CF05BC022E83FEF261B370BA0
:101460002A3131052CF020E030E040E050E02AC085
:10147000B801A701022E04C0769567955795479548
:101480000A94D2F781E090E0A0E0B0E004C0880FB9
:10149000991FAA1FBB1F2A95D2F70197A109B1096D
:1014A0008E219F21A023B1230097A105B10521F032
:1014B00081E090E0A0E0B0E09A01AB01282B392B4D
:1014C0004A2B5B2BDA01C9018F779070A070B07046
:1014D00080349105A105B10539F427FF09C0205CCE
:1014E0003F4F4F4F5F4F04C0215C3F4F4F4F5F4F07
:1014F000E0E0F0E02030A0E03A07A0E04A07A0E4F6
:101500005A0710F0E1E0F0E079018A0127C0603865
:10151000710564F5FB01E158FF4FD801C7018F77D2
:101520009070A070B07080349105A105B10539F4B8
:10153000E7FE0DC080E490E0A0E0B0E004C08FE3DF
:1015400090E0A0E0B0E0E80EF91E0A1F1B1F17FF95
:1015500005C016950795F794E794319687E01695A0
:101560000795F794E7948A95D1F705C0EE24FF24F8
:101570008701EFEFF0E06E2F679566276795902F54
:101580009F77D794DD24D7948E2F8695492F462BAD
:10159000582F5D29B701CA011F910F91FF90EF905D
:1015A000DF900895FC01DB01408151812281622F8F
:1015B0006F7770E0221F2227221F9381892F880FC7
:1015C000822B282F30E0991F9927991F11969C9301
:1015D000119721153105A9F54115510561057105D1
:1015E00011F482E037C082E89FEF13969C938E93AC
:1015F00012979A01AB0167E0220F331F441F551F5A
:101600006A95D1F783E08C930DC0220F331F441FDE
:10161000551F12968D919C911397019713969C9349
:101620008E931297203080E0380780E0480780E4EE
:10163000580758F314962D933D934D935C93179749
:1016400008952F3F310579F4411551056105710564
:1016500019F484E08C93089564FF03C081E08C93B7
:1016600012C01C9210C02F57304013963C932E93FB
:10167000129783E08C9387E0440F551F661F771FF6
:101680008A95D1F7706414964D935D936D937C9316
:10169000179708951F93DC01FB019C91923008F489
:1016A00047C08081823008F443C0943051F41196D1
:1016B0001C91843099F58181682F70E0611B71095C
:1016C0003FC0843021F0923031F48230B9F1818111
:1016D000882389F12DC011961C9111978230F1F069
:1016E00081811817D9F412962D913C91139782811C
:1016F00093818217930794F028173907BCF014964A
:101700008D919D910D90BC91A02D248135814681B4
:101710005781281739074A075B0718F4112341F04E
:101720000AC082179307A407B50740F4112319F0E4
:1017300061E070E005C06FEF7FEF02C060E070E035
:10174000CB011F910895629FD001739FF001829F8A
:10175000E00DF11D649FE00DF11D929FF00D839F40
:10176000F00D749FF00D659FF00D9927729FB00DDD
:10177000E11DF91F639FB00DE11DF91FBD01CF01F0
:1017800011240895AA1BBB1B51E107C0AA1FBB1F50
:10179000A617B70710F0A61BB70B881F991F5A95FD
:1017A000A9F780959095BC01CD010895A1E21A2E6C
:1017B000AA1BBB1BFD010DC0AA1FBB1FEE1FFF1FF5
:1017C000A217B307E407F50720F0A21BB30BE40B45
:1017D000F50B661F771F881F991F1A9469F760958C
:1017E0007095809590959B01AC01BD01CF01089546
:1017F0002F923F924F925F926F927F928F929F9221
:10180000AF92BF92CF92DF92EF92FF920F931F930E
:10181000CF93DF93CDB7DEB7CA1BDB0B0FB6F894BF
:10182000DEBF0FBECDBF09942A88398848885F84FF
:101830006E847D848C849B84AA84B984C884DF8070
:10184000EE80FD800C811B81AA81B981CE0FD11D54
:101850000FB6F894DEBF0FBECDBFED010895A0E036
:10186000B0E0E5E3FCE00C94080CFE0135966191D4
:10187000719180911D0790911E07AF010E948E0CFF
:101880002096E2E00C94240C0F931F93CF93DF93E8
:101890008C01E0911D07F0911E07838181FF21C01B
:1018A000C0E0D0E00DC0E0911D07F0911E0720853B
:1018B0003185BF01F9010995892B11F0CFEFDFEFD9
:1018C000F80181918F01882371F7E0911D07F09154
:1018D0001E07208531858AE0BF01F9010995892B12
:1018E00011F0CFEFDFEFCE01DF91CF911F910F917C
:1018F0000895A0E0B0E0EFE7FCE00C94080CFE01D6
:1019000035966191719180911B0790911C07AF01F1
:101910000E94EF0F2096E2E00C94240CABE0B0E0C4
:10192000E4E9FCE00C94F80B3C012B015A01FC01AA
:1019300017821682838181FD03C06FEF7FEFC6C1DE
:101940009AE0892E1E010894211C311CF301238189
:10195000F20123FD859123FF81912F01882309F452
:10196000B2C1853239F423FD859123FF81912F0186
:10197000853229F490E0B3010E946B11E7CF982FD4
:10198000FF24EE249924FFE1FF15D0F09B3269F08B
:101990009C3228F4903259F0933291F40EC09D326B
:1019A00049F0903369F441E024C052E0F52A84E024
:1019B000F82A28C098E0F92A25C0E0E1FE2A22C0D2
:1019C000F7FC29C0892F80538A3070F4F6FE05C0D9
:1019D000989C902C1124980E15C0E89CE02C1124A2
:1019E000E80EF0E2FF2A0EC09E3229F4F6FC6BC12D
:1019F00040E4F42A07C09C3619F450E8F52A02C0E6
:101A0000983649F4F20123FD959123FF91912F011E
:101A1000992309F0B8CF892F8554833018F080526C
:101A2000833038F444E050E0A40EB51E5FE35983E0
:101A30000FC0933631F0933779F0933509F056C0E3
:101A400020C0F5018081898342E050E0A40EB51EDC
:101A5000610101E010E012C0F501C080D180F6FC08
:101A600003C06FEF7FEF02C0692D70E042E050E0ED
:101A7000A40EB51EC6010E941E118C015FE7F5225F
:101A800014C0F501C080D180F6FC03C06FEF7FEF7A
:101A900002C0692D70E042E050E0A40EB51EC60100
:101AA0000E9413118C0150E8F52AF3FE07C01AC0FA
:101AB00080E290E0B3010E946B11EA948E2D90E0D9
:101AC00008171907A8F30EC0F601F7FC8591F7FE79
:101AD00081916F0190E0B3010E946B11E110EA94D3
:101AE000015010400115110579F7EAC0943611F044
:101AF000993669F5F7FE08C0F501208131814281F0
:101B0000538184E090E00AC0F501808191819C01BD
:101B1000442737FD4095542F82E090E0A80EB91E6F
:101B20009FE6F92257FF09C05095409530952195C1
:101B30003F4F4F4F5F4FE0E8FE2ACA01B901A101B4
:101B40002AE030E00E94B111D82ED21840C095375B
:101B500029F41F2D1F7E2AE030E01DC01F2D197FA4
:101B60009F3661F0903720F4983509F0ACC00FC073
:101B7000903739F0983709F0A6C004C028E030E06B
:101B80000AC0106114FD146020E130E004C014FDAF
:101B9000166020E132E017FF08C0F5016081718115
:101BA0008281938144E050E008C0F50180819181F9
:101BB000BC0180E090E042E050E0A40EB51EA1011F
:101BC0000E94B111D82ED2188FE7F82EF122F6FE1E
:101BD0000BC05EEFF522D91438F4F4FE07C0F2FC16
:101BE00005C08FEEF82202C01D2D01C0192DF4FE94
:101BF0000DC0FE01ED0DF11D8081803319F499EEC9
:101C0000F92208C01F5FF2FE05C003C08F2D867841
:101C100009F01F5F0F2DF3FC14C0F0FE0FC01E155E
:101C200010F09D2C0BC09D2C9E0C911A1E2D06C0F1
:101C300080E290E0B3010E946B111F5F1E15C0F39C
:101C400004C01E1510F4E11A01C0EE2404FF0FC0F9
:101C500080E390E0B3010E946B1102FF1DC001FD03
:101C600003C088E790E00EC088E590E00BC0802FAD
:101C7000867891F001FF02C08BE201C080E2F7FCA0
:101C80008DE290E0B3010E946B1106C080E390E00A
:101C9000B3010E946B119A94D914C0F3DA94F10144
:101CA000ED0DF11D808190E0B3010E946B11DD20EC
:101CB000A9F706C080E290E0B3010E946B11EA949C
:101CC000EE20C1F743CEF30166817781CB012B96DD
:101CD000E2E10C94140CFC0120FD08C023FD05C0BA
:101CE00022FF02C073836283518340830895EF9281
:101CF000FF920F931F9344FF02C033E011C046FFD1
:101D000002C034E00DC0DB01FC01AA0FBB1FEE1FB7
:101D1000FF1F1094D1F76A0F7B1F8E1F9F1F31E0AA
:101D2000660F771F881F991F3150D1F77B018C01F7
:101D3000E20EF11C011D111DA8019701B701CA0196
:101D40001F910F91FF90EF9008950F931F93CF93E2
:101D5000DF938C01C8010E942911EC0197FD08C096
:101D60000E940011892BB1F7CE01B8010E94971192
:101D7000CE01DF91CF911F910F910895A0E0B0E0C7
:101D8000E4ECFEE00C94000CEC01C62E5A01122F7C
:101D90000E942911AC018B3219F08D3251F4106878
:101DA000CA9409F46DC0CE010E942911AC0197FDBF
:101DB00067C06DEFD62ED1228D2D807301F5403393
:101DC000F1F4CA9409F447C0CE010E942911AC0174
:101DD00097FD41C082E0D82A483711F0483559F4C0
:101DE00080E4D82ACA94B9F1CE010E942911AC012D
:101DF00099232CF430C0D6FC02C080E1D82AEE240E
:101E0000FF248701242F2053283088F0D4FC09C0F8
:101E10002A3068F0D6FE05C02F7D822F8151863092
:101E200028F0CA01BE010E94971112C02750C801B4
:101E3000B7014D2D0E94770E7B018C0182E0D82ADC
:101E4000CA9461F0CE010E942911AC0197FFDACF4C
:101E5000D1FC04C015C0EE24FF248701D7FE08C0C2
:101E600010950095F094E094E11CF11C011D111DEA
:101E7000C501B801A7012D2D0E946B0E81E001C0A4
:101E800080E0CDB7DEB7EAE00C941C0CA0E2B0E035
:101E9000ECE4FFE00C94FC0B6C01A62E8A017901A6
:101EA000FE01319680E2DF011D928A95E9F770E02C
:101EB00030E060E040E050E04F01A1E0B0E0F6012A
:101EC0008381F70183FD259183FF21917F012223E7
:101ED00009F47EC02E3519F44115510569F1872F9B
:101EE00090E08417950744F42D3551F12D3221F4FB
:101EF000332329F431E021C0332309F4622F322F38
:101F0000832F869586958695F401E80FF11D832F22
:101F100087703D0102C0660C771C8A95E2F720812C
:101F200026292083361711F430E007C0361710F445
:101F30003F5FE6CF3150E4CF71E04F5F5F4FBFCFDF
:101F4000332319F08E8180628E83772359F0FE014E
:101F500031969E012F5D3F4F808180958193E217DE
:101F6000F307D1F7BB24B3944E010894811C911C54
:101F7000C6010E942911AC0197FD22C08695869565
:101F80008695F401E80FF11D808190E09A01277099
:101F9000307002C0959587952A95E2F780FD05C0BF
:101FA000CA01B6010E9497110BC00115110519F065
:101FB000D8014D938D01AA94BB24AA20C9F602C072
:101FC000BB2031F40115110529F0F801108202C07F
:101FD000EE24FF24C701A096EEE00C94180CA0E0BC
:101FE000B0E0E5EFFFE00C94FC0B5C016B013A0103
:101FF000FC01178216828824EAC0812F90E00E949B
:102000000011892B21F0C5010E94A50EE0C01532F8
:1020100049F4F601F3FC6591F3FE61916F016532BD
:1020200069F415E2C5010E94291197FDDCC018175B
:1020300009F4CDC0B5010E949711DAC06A3219F0D7
:10204000162F00E006C0F3FC1591F3FE11916F010D
:1020500001E099240FC00260692D70E080E090E0FB
:1020600040E20E94770E962EF601F3FC1591F3FEE6
:1020700011916F01212F20532A3068F301FD03C015
:1020800099249A9403C0992009F4B2C0183621F01B
:102090001C3699F4F6010BC0F601F3FC6591F3FED2
:1020A0006191683619F06F01162F07C0086004604F
:1020B000F3FC1591F3FE11916F01112309F498C0FF
:1020C0008CE790E0612F70E00E940811892B09F4E1
:1020D0008FC0802F00FF03C0EE24FF2407C0F30150
:1020E000E080F18022E030E0620E731E1E3651F473
:1020F000F5014681578160E070E0C701202F0E9402
:102100006B0E65C0133691F481FD02C0992493943F
:10211000C5010E94291197FD66C0E114F10419F070
:10212000F70181937F019A9499F74FC01B3559F4B9
:10213000C501692DA70196010E94460F6C01009709
:1021400009F043C03DC0C5010E94A50E97FD4BC0DC
:102150001F3659F1103728F4143629F1193639F59C
:1021600027C0133719F0153711F51DC0C5010E949E
:102170002911EC0197FD11C00E940011892B29F053
:10218000CE01B5010E94971108C0E114F10419F0C5
:10219000F701C1937F019A9449F7E114F104A9F082
:1021A000F701108212C0006203C0006101C0006428
:1021B000C501692DA701202F0E94BE0E882329F496
:1021C000F5018381807379F413C000FF8394F501D6
:1021D000F380F601F3FC1591F3FE11916F011123C9
:1021E00009F00BCF05C0882019F42FEF3FEF02C094
:1021F000282D30E0C901CDB7DEB7EEE00C94180C05
:1022000091110DC1803219F089508550D0F7089591
:10221000FC010590061621F00020D9F7C0010895B1
:102220003197CF010895FC01059061507040011075
:10223000D8F7809590958E0F9F1F0895FC016150EF
:10224000704001900110D8F7809590958E0F9F1FD8
:102250000895CF93DF93EC014B8140FF1AC046FFF6
:102260000AC04F7B4B838E819F8101969F838E8313
:102270008A81282F2BC042FF13C0E881F981808119
:10228000282F332727FD30952115310529F4406289
:102290004B832FEF3FEF1BC03196F983E88311C0CA
:1022A000EA85FB85CE0109959C0197FF0AC09B81B9
:1022B0002F5F3F4F11F080E201C080E1892B8B83BB
:1022C000E8CF8E819F8101969F838E8330E0C90184
:1022D000DF91CF9108950F931F93CF93DF938C01DC
:1022E000EB018B8181FF1BC082FF0DC02E813F81DE
:1022F0008C819D812817390764F4E881F981019365
:10230000F983E88306C0E885F985802F0995892B34
:1023100031F48E819F8101969F838E8302C00FEFDF
:102320001FEFC801DF91CF911F910F9108959C017C
:10233000FB01838180FF11C086FD0FC09FEF2F3FFF
:10234000390759F0228380648F7D8383868197814A
:1023500001979783868330E002C02FEF3FEFC901DA
:102360000895FA01AA27283051F1203181F1E8942B
:102370006F936E7F6E5F7F4F8F4F9F4FAF4FB1E078
:102380003ED0B4E03CD0670F781F891F9A1FA11D73
:10239000680F791F8A1F911DA11D6A0F711D811D74
:1023A000911DA11D20D009F468943F912AE0269F39
:1023B00011243019305D3193DEF6CF010895462F98
:1023C0004770405D4193B3E00FD0C9F7F6CF462F79
:1023D0004F70405D4A3318F0495D31FD40524193E2
:1023E00002D0A9F7EACFB4E0A6959795879577959F
:1023F0006795BA95C9F700976105710508959B0126
:10240000AC010A2E06945795479537952795BA95AE
:10241000C9F7620F731F841F951FA01D0895992788
:0824200088270895F894FFCF0E
:102428004144433A202564202825752E25303275ED
:1024380056290A005B44454255475D20546172673E
:10244800657420667265713A20256420487A0A000E
:102458005B44454255475D20496E697469616C204B
:10246800544F503A20256C750A005B444542554745
:102478005D205573696E67207072657363616C6562
:10248800723A2031005B44454255475D20557369D7
:102498006E67207072657363616C65723A203800EC
:1024A8005B44454255475D2041646A7573746564B1
:1024B80020544F503A20256C750A005B444542551C
:1024C800475D20494352312028544F50293A20254E
:1024D800750A005B44454255475D204F43523141E0
:1024E800202864757479293A2025750A005B4445CB
:1024F8004255475D205443435231413A20307825B4
:102508003032580A005B44454255475D20544343E6
:102518005231423A203078253032580A00467265E6
:102528007175656E63792073657420746F202564F6
:1025380020487A0A004572726F723A2046726571B5
:1025480075656E6379206D75737420626520312D11
:102558003530303020487A004475747920637963C7
:102568006C652073657420746F20256425250A0026
:102578004572726F723A2044757479206379636C7E
:1025880065206D75737420626520302D31303025DB
:10259800250A0050574D20737461727465643A209F
:1025A800256420487A2C20256425252064757479B3
:1025B8000A0050574D2073746F7070656400436F44
:1025C8006E74696E756F75732073616D706C696E6A
:1025D8006720737461727465640043616E6E6F7412
:1025E8002073746172742073616D706C696E6720FA
:1025F8007768696C65205049442069732061637469
:1026080069766500436F6E74696E756F75732073B4
:10261800616D706C696E672073746F7070656400AB
:1026280050696E20504435206973206E6F772048BA
:102638004947480050696E20504435206973206E20
:102648006F77204C4F570050574D20496E666F3AB0
:10265800004F4646004F4E00202053746174757336
:102668003A2025730A0020204672657175656E63ED
:10267800793A20256420487A202861637475616C52
:10268800290A00202044757479204379636C653ADF
:1026980020256425250A0020204F75747075742044
:1026A80050696E3A2050443520284F433141290063
:1026B8002020414443204368616E6E656C3A205087
:1026C800413020284144433029002020416374755B
:1026D800616C20467265713A20256C7520487A0A2B
:1026E8000050494420656E61626C6564005049443D
:1026F8002064697361626C656400536574706F6906
:102708006E743A2025640A00556E6B6E6F776E20E2
:10271800636F6D6D616E642E20417661696C6162D4
:102728006C653A00202046203C667265713E202088
:102738002D20536574206672657175656E63792006
:1027480028312D3530303020487A29002020442087
:102758003C647574793E20202D205365742064757F
:102768007479206379636C652028302D31303025E9
:1027780025290A0020205320202020202020202046
:102788002D2053746172742050574D00202054201E
:1027980020202020202020202D2053746F702050CE
:1027A800574D002020522020202020202020202D9E
:1027B800205265616420414443206F6E63650020A8
:1027C800204D2020202020202020202D20537461FF
:1027D800727420636F6E74696E756F7573207361A0
:1027E8006D706C696E670020204E2020202020200C
:1027F8002020202D2053746F7020636F6E74696ED3
:10280800756F75732073616D706C696E6700202039
:10281800502020202020202020202D20456E61627D
:102828006C65205049440020205120202020202081
:102838002020202D2044697361626C652050494432
:1028480000202056203C73657470743E202D205360
:1028580065742050494420736574706F696E740004
:102868002020582020202020202020202D20546F98
:1028780067676C6520746573742070696E205044B6
:1028880035002020492020202020202020202D2015
:1028980053686F7720696E666F0050574D20476503
:1028A8006E657261746F7220526561647900436F5E
:1028B8006E6E6563742050574D206F757470757413
:1028C80020285044352920746F2041444320696EE4
:1028D800707574202850413029005479706520277C
:1028E800492720666F7220636F6D6D616E64730097
:1028F800257320256400252A7300E80332000000B0
:102908000100000000000077000000000000020045
:10291800000000630000000000000000000000004C
:102928000000010202030303030404040404040472
:102938000405050505050505050505050505050540
:102948000506060606060606060606060606060620
:10295800060606060606060606060606060606060F
:1029680006070707070707070707070707070707F0
:1029780007070707070707070707070707070707DF
:1029880007070707070707070707070707070707CF
:1029980007070707070707070707070707070707BF
:1029A80007080808080808080808080808080808A0
:1029B800080808080808080808080808080808088F
:1029C800080808080808080808080808080808087F
:1029D800080808080808080808080808080808086F
:1029E800080808080808080808080808080808085F
:1029F800080808080808080808080808080808084F
:102A0800080808080808080808080808080808083E
:102A1800080808080808080808080808080808082E
:022A28000800A4
:00000001FF
